{
  "address": "0x0764cB8CA7481fB79ea48738B5047d0B932e76aC",
  "abi": [
    {
      "inputs": [
        {
          "internalType": "string",
          "name": "name",
          "type": "string"
        },
        {
          "internalType": "string",
          "name": "symbol",
          "type": "string"
        },
        {
          "internalType": "string",
          "name": "uri",
          "type": "string"
        }
      ],
      "stateMutability": "nonpayable",
      "type": "constructor"
    },
    {
      "anonymous": false,
      "inputs": [
        {
          "indexed": true,
          "internalType": "address",
          "name": "owner",
          "type": "address"
        },
        {
          "indexed": true,
          "internalType": "address",
          "name": "approved",
          "type": "address"
        },
        {
          "indexed": true,
          "internalType": "uint256",
          "name": "tokenId",
          "type": "uint256"
        }
      ],
      "name": "Approval",
      "type": "event"
    },
    {
      "anonymous": false,
      "inputs": [
        {
          "indexed": true,
          "internalType": "address",
          "name": "owner",
          "type": "address"
        },
        {
          "indexed": true,
          "internalType": "address",
          "name": "operator",
          "type": "address"
        },
        {
          "indexed": false,
          "internalType": "bool",
          "name": "approved",
          "type": "bool"
        }
      ],
      "name": "ApprovalForAll",
      "type": "event"
    },
    {
      "anonymous": false,
      "inputs": [
        {
          "indexed": true,
          "internalType": "address",
          "name": "minter",
          "type": "address"
        }
      ],
      "name": "MinterAdded",
      "type": "event"
    },
    {
      "anonymous": false,
      "inputs": [
        {
          "indexed": true,
          "internalType": "address",
          "name": "minter",
          "type": "address"
        }
      ],
      "name": "MinterRemoved",
      "type": "event"
    },
    {
      "anonymous": false,
      "inputs": [
        {
          "indexed": true,
          "internalType": "address",
          "name": "previousOwner",
          "type": "address"
        },
        {
          "indexed": true,
          "internalType": "address",
          "name": "newOwner",
          "type": "address"
        }
      ],
      "name": "OwnershipTransferred",
      "type": "event"
    },
    {
      "anonymous": false,
      "inputs": [
        {
          "indexed": true,
          "internalType": "address",
          "name": "from",
          "type": "address"
        },
        {
          "indexed": true,
          "internalType": "address",
          "name": "to",
          "type": "address"
        },
        {
          "indexed": true,
          "internalType": "uint256",
          "name": "tokenId",
          "type": "uint256"
        }
      ],
      "name": "Transfer",
      "type": "event"
    },
    {
      "inputs": [
        {
          "internalType": "address",
          "name": "minter",
          "type": "address"
        }
      ],
      "name": "addMinter",
      "outputs": [],
      "stateMutability": "nonpayable",
      "type": "function"
    },
    {
      "inputs": [
        {
          "internalType": "address",
          "name": "to",
          "type": "address"
        },
        {
          "internalType": "uint256",
          "name": "tokenId",
          "type": "uint256"
        }
      ],
      "name": "approve",
      "outputs": [],
      "stateMutability": "nonpayable",
      "type": "function"
    },
    {
      "inputs": [
        {
          "internalType": "address",
          "name": "owner",
          "type": "address"
        }
      ],
      "name": "balanceOf",
      "outputs": [
        {
          "internalType": "uint256",
          "name": "",
          "type": "uint256"
        }
      ],
      "stateMutability": "view",
      "type": "function"
    },
    {
      "inputs": [
        {
          "internalType": "address[]",
          "name": "receivers",
          "type": "address[]"
        },
        {
          "internalType": "uint256[]",
          "name": "tokenIDs",
          "type": "uint256[]"
        }
      ],
      "name": "batchMint",
      "outputs": [],
      "stateMutability": "nonpayable",
      "type": "function"
    },
    {
      "inputs": [
        {
          "internalType": "uint256",
          "name": "tokenId",
          "type": "uint256"
        }
      ],
      "name": "getApproved",
      "outputs": [
        {
          "internalType": "address",
          "name": "",
          "type": "address"
        }
      ],
      "stateMutability": "view",
      "type": "function"
    },
    {
      "inputs": [
        {
          "internalType": "address",
          "name": "owner",
          "type": "address"
        },
        {
          "internalType": "address",
          "name": "operator",
          "type": "address"
        }
      ],
      "name": "isApprovedForAll",
      "outputs": [
        {
          "internalType": "bool",
          "name": "",
          "type": "bool"
        }
      ],
      "stateMutability": "view",
      "type": "function"
    },
    {
      "inputs": [],
      "name": "name",
      "outputs": [
        {
          "internalType": "string",
          "name": "",
          "type": "string"
        }
      ],
      "stateMutability": "view",
      "type": "function"
    },
    {
      "inputs": [],
      "name": "owner",
      "outputs": [
        {
          "internalType": "address",
          "name": "",
          "type": "address"
        }
      ],
      "stateMutability": "view",
      "type": "function"
    },
    {
      "inputs": [
        {
          "internalType": "uint256",
          "name": "tokenId",
          "type": "uint256"
        }
      ],
      "name": "ownerOf",
      "outputs": [
        {
          "internalType": "address",
          "name": "",
          "type": "address"
        }
      ],
      "stateMutability": "view",
      "type": "function"
    },
    {
      "inputs": [
        {
          "internalType": "address",
          "name": "minter",
          "type": "address"
        }
      ],
      "name": "removeMinter",
      "outputs": [],
      "stateMutability": "nonpayable",
      "type": "function"
    },
    {
      "inputs": [],
      "name": "renounceOwnership",
      "outputs": [],
      "stateMutability": "nonpayable",
      "type": "function"
    },
    {
      "inputs": [
        {
          "internalType": "address",
          "name": "from",
          "type": "address"
        },
        {
          "internalType": "address",
          "name": "to",
          "type": "address"
        },
        {
          "internalType": "uint256",
          "name": "tokenId",
          "type": "uint256"
        }
      ],
      "name": "safeTransferFrom",
      "outputs": [],
      "stateMutability": "nonpayable",
      "type": "function"
    },
    {
      "inputs": [
        {
          "internalType": "address",
          "name": "from",
          "type": "address"
        },
        {
          "internalType": "address",
          "name": "to",
          "type": "address"
        },
        {
          "internalType": "uint256",
          "name": "tokenId",
          "type": "uint256"
        },
        {
          "internalType": "bytes",
          "name": "_data",
          "type": "bytes"
        }
      ],
      "name": "safeTransferFrom",
      "outputs": [],
      "stateMutability": "nonpayable",
      "type": "function"
    },
    {
      "inputs": [
        {
          "internalType": "address",
          "name": "operator",
          "type": "address"
        },
        {
          "internalType": "bool",
          "name": "approved",
          "type": "bool"
        }
      ],
      "name": "setApprovalForAll",
      "outputs": [],
      "stateMutability": "nonpayable",
      "type": "function"
    },
    {
      "inputs": [
        {
          "internalType": "bytes4",
          "name": "interfaceId",
          "type": "bytes4"
        }
      ],
      "name": "supportsInterface",
      "outputs": [
        {
          "internalType": "bool",
          "name": "",
          "type": "bool"
        }
      ],
      "stateMutability": "view",
      "type": "function"
    },
    {
      "inputs": [],
      "name": "symbol",
      "outputs": [
        {
          "internalType": "string",
          "name": "",
          "type": "string"
        }
      ],
      "stateMutability": "view",
      "type": "function"
    },
    {
      "inputs": [
        {
          "internalType": "uint256",
          "name": "index",
          "type": "uint256"
        }
      ],
      "name": "tokenByIndex",
      "outputs": [
        {
          "internalType": "uint256",
          "name": "",
          "type": "uint256"
        }
      ],
      "stateMutability": "view",
      "type": "function"
    },
    {
      "inputs": [
        {
          "internalType": "address",
          "name": "owner",
          "type": "address"
        },
        {
          "internalType": "uint256",
          "name": "index",
          "type": "uint256"
        }
      ],
      "name": "tokenOfOwnerByIndex",
      "outputs": [
        {
          "internalType": "uint256",
          "name": "",
          "type": "uint256"
        }
      ],
      "stateMutability": "view",
      "type": "function"
    },
    {
      "inputs": [
        {
          "internalType": "uint256",
          "name": "tokenId",
          "type": "uint256"
        }
      ],
      "name": "tokenURI",
      "outputs": [
        {
          "internalType": "string",
          "name": "",
          "type": "string"
        }
      ],
      "stateMutability": "view",
      "type": "function"
    },
    {
      "inputs": [],
      "name": "totalSupply",
      "outputs": [
        {
          "internalType": "uint256",
          "name": "",
          "type": "uint256"
        }
      ],
      "stateMutability": "view",
      "type": "function"
    },
    {
      "inputs": [
        {
          "internalType": "address",
          "name": "from",
          "type": "address"
        },
        {
          "internalType": "address",
          "name": "to",
          "type": "address"
        },
        {
          "internalType": "uint256",
          "name": "tokenId",
          "type": "uint256"
        }
      ],
      "name": "transferFrom",
      "outputs": [],
      "stateMutability": "nonpayable",
      "type": "function"
    },
    {
      "inputs": [
        {
          "internalType": "address",
          "name": "newOwner",
          "type": "address"
        }
      ],
      "name": "transferOwnership",
      "outputs": [],
      "stateMutability": "nonpayable",
      "type": "function"
    }
  ],
  "transactionHash": "0x6b26e9264a68cd980159d1ac4794b3b0a10ec2b9dd1e2b6b618a9ba84b9f1d6a",
  "args": [
    "CMC Staking",
    "CMCS",
    "https://ipfs.io/ipfs/bafkreies4wootcb6bgqdgpqgwqaiuyfhe5sg6zschojydzzbdbersjwu5a?filename=metadata.json"
  ],
  "solcInputHash": "3bbea251d8b2ee14d0546bde3e71397b",
  "bytecode": "0x60806040523480156200001157600080fd5b50604051620021eb380380620021eb833981016040819052620000349162000246565b8251839083906200004d906000906020850190620000f5565b50805162000063906001906020840190620000f5565b505050620000806200007a6200009f60201b60201c565b620000a3565b80516200009590600c906020840190620000f5565b5050505062000326565b3390565b600a80546001600160a01b038381166001600160a01b0319831681179093556040519116919082907f8be0079c531659141344cd1fd0a4f28419497f9722a3daafe3b4186f6b6457e090600090a35050565b8280546200010390620002d3565b90600052602060002090601f01602090048101928262000127576000855562000172565b82601f106200014257805160ff191683800117855562000172565b8280016001018555821562000172579182015b828111156200017257825182559160200191906001019062000155565b506200018092915062000184565b5090565b5b8082111562000180576000815560010162000185565b600082601f830112620001ac578081fd5b81516001600160401b0380821115620001c957620001c962000310565b6040516020601f8401601f1916820181018381118382101715620001f157620001f162000310565b604052838252858401810187101562000208578485fd5b8492505b838310156200022b57858301810151828401820152918201916200020c565b838311156200023c57848185840101525b5095945050505050565b6000806000606084860312156200025b578283fd5b83516001600160401b038082111562000272578485fd5b62000280878388016200019b565b9450602086015191508082111562000296578384fd5b620002a4878388016200019b565b93506040860151915080821115620002ba578283fd5b50620002c9868287016200019b565b9150509250925092565b600281046001821680620002e857607f821691505b602082108114156200030a57634e487b7160e01b600052602260045260246000fd5b50919050565b634e487b7160e01b600052604160045260246000fd5b611eb580620003366000396000f3fe608060405234801561001057600080fd5b50600436106101825760003560e01c806368573107116100d8578063983b2d561161008c578063c87b56dd11610066578063c87b56dd146102f8578063e985e9c51461030b578063f2fde38b1461031e57610182565b8063983b2d56146102bf578063a22cb465146102d2578063b88d4fde146102e557610182565b8063715018a6116100bd578063715018a6146102a75780638da5cb5b146102af57806395d89b41146102b757610182565b8063685731071461028157806370a082311461029457610182565b806323b872dd1161013a57806342842e0e1161011457806342842e0e146102485780634f6ccce71461025b5780636352211e1461026e57610182565b806323b872dd1461020f5780632f745c59146102225780633092afd51461023557610182565b8063081812fc1161016b578063081812fc146101c5578063095ea7b3146101e557806318160ddd146101fa57610182565b806301ffc9a71461018757806306fdde03146101b0575b600080fd5b61019a610195366004611630565b610331565b6040516101a7919061171b565b60405180910390f35b6101b861035e565b6040516101a79190611726565b6101d86101d3366004611668565b6103f0565b6040516101a791906116cb565b6101f86101f3366004611549565b61043c565b005b6102026104d4565b6040516101a79190611d8a565b6101f861021d36600461141c565b6104da565b610202610230366004611549565b610512565b6101f86102433660046113c9565b610564565b6101f861025636600461141c565b61060e565b610202610269366004611668565b610629565b6101d861027c366004611668565b610684565b6101f861028f366004611572565b6106b9565b6102026102a23660046113c9565b610795565b6101f86107d9565b6101d8610824565b6101b8610833565b6101f86102cd3660046113c9565b610842565b6101f86102e036600461150f565b6108ed565b6101f86102f3366004611457565b6109bb565b6101b8610306366004611668565b6109fa565b61019a6103193660046113ea565b610ab3565b6101f861032c3660046113c9565b610ae1565b60006001600160e01b0319821663780e9d6360e01b1480610356575061035682610b4f565b90505b919050565b60606000805461036d90611e10565b80601f016020809104026020016040519081016040528092919081815260200182805461039990611e10565b80156103e65780601f106103bb576101008083540402835291602001916103e6565b820191906000526020600020905b8154815290600101906020018083116103c957829003601f168201915b5050505050905090565b60006103fb82610b8f565b6104205760405162461bcd60e51b815260040161041790611af7565b60405180910390fd5b506000908152600460205260409020546001600160a01b031690565b600061044782610684565b9050806001600160a01b0316836001600160a01b0316141561047b5760405162461bcd60e51b815260040161041790611bd5565b806001600160a01b031661048d610bac565b6001600160a01b031614806104a957506104a981610319610bac565b6104c55760405162461bcd60e51b8152600401610417906119ab565b6104cf8383610bb0565b505050565b60085490565b6104eb6104e5610bac565b82610c1e565b6105075760405162461bcd60e51b815260040161041790611c16565b6104cf838383610ca3565b600061051d83610795565b821061053b5760405162461bcd60e51b815260040161041790611739565b506001600160a01b03919091166000908152600660209081526040808320938352929052205490565b61056c610bac565b6001600160a01b031661057d610824565b6001600160a01b0316146105a35760405162461bcd60e51b815260040161041790611b43565b6001600160a01b0381166000908152600b602052604090205460ff161561060b576001600160a01b0381166000818152600b6020526040808220805460ff19169055517fe94479a9f7e1952cc78f2d6baab678adc1b772d936c6583def489e524cb666929190a25b50565b6104cf838383604051806020016040528060008152506109bb565b60006106336104d4565b82106106515760405162461bcd60e51b815260040161041790611cd0565b6008828154811061067257634e487b7160e01b600052603260045260246000fd5b90600052602060002001549050919050565b6000818152600260205260408120546001600160a01b0316806103565760405162461bcd60e51b815260040161041790611a65565b600b60006106c5610bac565b6001600160a01b0316815260208101919091526040016000205460ff166106fe5760405162461bcd60e51b815260040161041790611d2d565b805182511461071f5760405162461bcd60e51b815260040161041790611887565b60005b82518110156104cf5761078383828151811061074e57634e487b7160e01b600052603260045260246000fd5b602002602001015183838151811061077657634e487b7160e01b600052603260045260246000fd5b6020026020010151610dd0565b8061078d81611e4b565b915050610722565b60006001600160a01b0382166107bd5760405162461bcd60e51b815260040161041790611a08565b506001600160a01b031660009081526003602052604090205490565b6107e1610bac565b6001600160a01b03166107f2610824565b6001600160a01b0316146108185760405162461bcd60e51b815260040161041790611b43565b6108226000610dee565b565b600a546001600160a01b031690565b60606001805461036d90611e10565b61084a610bac565b6001600160a01b031661085b610824565b6001600160a01b0316146108815760405162461bcd60e51b815260040161041790611b43565b6001600160a01b0381166000908152600b602052604090205460ff1661060b576001600160a01b0381166000818152600b6020526040808220805460ff19166001179055517f6ae172837ea30b801fbfcdd4108aa1d5bf8ff775444fd70256b44e6bf3dfc3f69190a250565b6108f5610bac565b6001600160a01b0316826001600160a01b031614156109265760405162461bcd60e51b815260040161041790611928565b8060056000610933610bac565b6001600160a01b03908116825260208083019390935260409182016000908120918716808252919093529120805460ff191692151592909217909155610977610bac565b6001600160a01b03167f17307eab39ab6107e8899845ad3d59bd9653f200f220920489ca2b5937696c31836040516109af919061171b565b60405180910390a35050565b6109cc6109c6610bac565b83610c1e565b6109e85760405162461bcd60e51b815260040161041790611c16565b6109f484848484610e40565b50505050565b6060610a0582610b8f565b610a215760405162461bcd60e51b815260040161041790611c73565b600c8054610a2e90611e10565b80601f0160208091040260200160405190810160405280929190818152602001828054610a5a90611e10565b8015610aa75780601f10610a7c57610100808354040283529160200191610aa7565b820191906000526020600020905b815481529060010190602001808311610a8a57829003601f168201915b50505050509050919050565b6001600160a01b03918216600090815260056020908152604080832093909416825291909152205460ff1690565b610ae9610bac565b6001600160a01b0316610afa610824565b6001600160a01b031614610b205760405162461bcd60e51b815260040161041790611b43565b6001600160a01b038116610b465760405162461bcd60e51b8152600401610417906117f3565b61060b81610dee565b60006001600160e01b031982166380ac58cd60e01b1480610b8057506001600160e01b03198216635b5e139f60e01b145b80610356575061035682610e73565b6000908152600260205260409020546001600160a01b0316151590565b3390565b600081815260046020526040902080546001600160a01b0319166001600160a01b0384169081179091558190610be582610684565b6001600160a01b03167f8c5be1e5ebec7d5bd14f71427d1e84f3dd0314c0f7b2291e5b200ac8c7c3b92560405160405180910390a45050565b6000610c2982610b8f565b610c455760405162461bcd60e51b81526004016104179061195f565b6000610c5083610684565b9050806001600160a01b0316846001600160a01b03161480610c8b5750836001600160a01b0316610c80846103f0565b6001600160a01b0316145b80610c9b5750610c9b8185610ab3565b949350505050565b826001600160a01b0316610cb682610684565b6001600160a01b031614610cdc5760405162461bcd60e51b815260040161041790611b78565b6001600160a01b038216610d025760405162461bcd60e51b8152600401610417906118e4565b610d0d838383610e8c565b610d18600082610bb0565b6001600160a01b0383166000908152600360205260408120805460019290610d41908490611df9565b90915550506001600160a01b0382166000908152600360205260408120805460019290610d6f908490611de1565b909155505060008181526002602052604080822080546001600160a01b0319166001600160a01b0386811691821790925591518493918716917fddf252ad1be2c89b69c2b068fc378daa952ba7f163c4a11628f55a4df523b3ef91a4505050565b610dea828260405180602001604052806000815250610f15565b5050565b600a80546001600160a01b038381166001600160a01b0319831681179093556040519116919082907f8be0079c531659141344cd1fd0a4f28419497f9722a3daafe3b4186f6b6457e090600090a35050565b610e4b848484610ca3565b610e5784848484610f48565b6109f45760405162461bcd60e51b815260040161041790611796565b6001600160e01b031981166301ffc9a760e01b14919050565b610e978383836104cf565b6001600160a01b038316610eb357610eae81611063565b610ed6565b816001600160a01b0316836001600160a01b031614610ed657610ed683826110a7565b6001600160a01b038216610ef257610eed81611144565b6104cf565b826001600160a01b0316826001600160a01b0316146104cf576104cf828261121d565b610f1f8383611261565b610f2c6000848484610f48565b6104cf5760405162461bcd60e51b815260040161041790611796565b6000610f5c846001600160a01b0316611340565b1561105857836001600160a01b031663150b7a02610f78610bac565b8786866040518563ffffffff1660e01b8152600401610f9a94939291906116df565b602060405180830381600087803b158015610fb457600080fd5b505af1925050508015610fe4575060408051601f3d908101601f19168201909252610fe19181019061164c565b60015b61103e573d808015611012576040519150601f19603f3d011682016040523d82523d6000602084013e611017565b606091505b5080516110365760405162461bcd60e51b815260040161041790611796565b805181602001fd5b6001600160e01b031916630a85bd0160e11b149050610c9b565b506001949350505050565b600880546000838152600960205260408120829055600182018355919091527ff3f7a9fe364faab93b216da50a3214154f22a0a2b415b23a84c8169e8b636ee30155565b600060016110b484610795565b6110be9190611df9565b600083815260076020526040902054909150808214611111576001600160a01b03841660009081526006602090815260408083208584528252808320548484528184208190558352600790915290208190555b5060009182526007602090815260408084208490556001600160a01b039094168352600681528383209183525290812055565b60085460009061115690600190611df9565b6000838152600960205260408120546008805493945090928490811061118c57634e487b7160e01b600052603260045260246000fd5b9060005260206000200154905080600883815481106111bb57634e487b7160e01b600052603260045260246000fd5b600091825260208083209091019290925582815260099091526040808220849055858252812055600880548061120157634e487b7160e01b600052603160045260246000fd5b6001900381819060005260206000200160009055905550505050565b600061122883610795565b6001600160a01b039093166000908152600660209081526040808320868452825280832085905593825260079052919091209190915550565b6001600160a01b0382166112875760405162461bcd60e51b815260040161041790611ac2565b61129081610b8f565b156112ad5760405162461bcd60e51b815260040161041790611850565b6112b960008383610e8c565b6001600160a01b03821660009081526003602052604081208054600192906112e2908490611de1565b909155505060008181526002602052604080822080546001600160a01b0319166001600160a01b03861690811790915590518392907fddf252ad1be2c89b69c2b068fc378daa952ba7f163c4a11628f55a4df523b3ef908290a45050565b3b151590565b80356001600160a01b038116811461035957600080fd5b600082601f83011261136d578081fd5b8135602061138261137d83611dbd565b611d93565b828152818101908583018385028701840188101561139e578586fd5b855b858110156113bc578135845292840192908401906001016113a0565b5090979650505050505050565b6000602082840312156113da578081fd5b6113e382611346565b9392505050565b600080604083850312156113fc578081fd5b61140583611346565b915061141360208401611346565b90509250929050565b600080600060608486031215611430578081fd5b61143984611346565b925061144760208501611346565b9150604084013590509250925092565b6000806000806080858703121561146c578081fd5b61147585611346565b93506020611484818701611346565b935060408601359250606086013567ffffffffffffffff808211156114a7578384fd5b818801915088601f8301126114ba578384fd5b8135818111156114cc576114cc611e7c565b6114de601f8201601f19168501611d93565b915080825289848285010111156114f3578485fd5b8084840185840137810190920192909252939692955090935050565b60008060408385031215611521578182fd5b61152a83611346565b91506020830135801515811461153e578182fd5b809150509250929050565b6000806040838503121561155b578182fd5b61156483611346565b946020939093013593505050565b60008060408385031215611584578182fd5b823567ffffffffffffffff8082111561159b578384fd5b818501915085601f8301126115ae578384fd5b813560206115be61137d83611dbd565b82815281810190858301838502870184018b10156115da578889fd5b8896505b84871015611603576115ef81611346565b8352600196909601959183019183016115de565b5096505086013592505080821115611619578283fd5b506116268582860161135d565b9150509250929050565b600060208284031215611641578081fd5b81356113e381611e92565b60006020828403121561165d578081fd5b81516113e381611e92565b600060208284031215611679578081fd5b5035919050565b60008151808452815b818110156116a557602081850181015186830182015201611689565b818111156116b65782602083870101525b50601f01601f19169290920160200192915050565b6001600160a01b0391909116815260200190565b60006001600160a01b038087168352808616602084015250836040830152608060608301526117116080830184611680565b9695505050505050565b901515815260200190565b6000602082526113e36020830184611680565b6020808252602b908201527f455243373231456e756d657261626c653a206f776e657220696e646578206f7560408201527f74206f6620626f756e6473000000000000000000000000000000000000000000606082015260800190565b60208082526032908201527f4552433732313a207472616e7366657220746f206e6f6e20455243373231526560408201527f63656976657220696d706c656d656e7465720000000000000000000000000000606082015260800190565b60208082526026908201527f4f776e61626c653a206e6577206f776e657220697320746865207a65726f206160408201527f6464726573730000000000000000000000000000000000000000000000000000606082015260800190565b6020808252601c908201527f4552433732313a20746f6b656e20616c7265616479206d696e74656400000000604082015260600190565b60208082526025908201527f42617463684d696e7442616467653a206172726179206c656e6774682064697360408201527f6d61746368000000000000000000000000000000000000000000000000000000606082015260800190565b60208082526024908201527f4552433732313a207472616e7366657220746f20746865207a65726f206164646040820152637265737360e01b606082015260800190565b60208082526019908201527f4552433732313a20617070726f766520746f2063616c6c657200000000000000604082015260600190565b6020808252602c908201527f4552433732313a206f70657261746f7220717565727920666f72206e6f6e657860408201526b34b9ba32b73a103a37b5b2b760a11b606082015260800190565b60208082526038908201527f4552433732313a20617070726f76652063616c6c6572206973206e6f74206f7760408201527f6e6572206e6f7220617070726f76656420666f7220616c6c0000000000000000606082015260800190565b6020808252602a908201527f4552433732313a2062616c616e636520717565727920666f7220746865207a6560408201527f726f206164647265737300000000000000000000000000000000000000000000606082015260800190565b60208082526029908201527f4552433732313a206f776e657220717565727920666f72206e6f6e657869737460408201527f656e7420746f6b656e0000000000000000000000000000000000000000000000606082015260800190565b6020808252818101527f4552433732313a206d696e7420746f20746865207a65726f2061646472657373604082015260600190565b6020808252602c908201527f4552433732313a20617070726f76656420717565727920666f72206e6f6e657860408201526b34b9ba32b73a103a37b5b2b760a11b606082015260800190565b6020808252818101527f4f776e61626c653a2063616c6c6572206973206e6f7420746865206f776e6572604082015260600190565b60208082526029908201527f4552433732313a207472616e73666572206f6620746f6b656e2074686174206960408201527f73206e6f74206f776e0000000000000000000000000000000000000000000000606082015260800190565b60208082526021908201527f4552433732313a20617070726f76616c20746f2063757272656e74206f776e656040820152603960f91b606082015260800190565b60208082526031908201527f4552433732313a207472616e736665722063616c6c6572206973206e6f74206f60408201527f776e6572206e6f7220617070726f766564000000000000000000000000000000606082015260800190565b6020808252602f908201527f42617463684d696e7442616467653a2055524920717565727920666f72206e6f60408201527f6e6578697374656e7420746f6b656e0000000000000000000000000000000000606082015260800190565b6020808252602c908201527f455243373231456e756d657261626c653a20676c6f62616c20696e646578206f60408201527f7574206f6620626f756e64730000000000000000000000000000000000000000606082015260800190565b60208082526028908201527f42617463684d696e7442616467653a2063616c6c6572206973206e6f7420746860408201527f65206d696e746572000000000000000000000000000000000000000000000000606082015260800190565b90815260200190565b60405181810167ffffffffffffffff81118282101715611db557611db5611e7c565b604052919050565b600067ffffffffffffffff821115611dd757611dd7611e7c565b5060209081020190565b60008219821115611df457611df4611e66565b500190565b600082821015611e0b57611e0b611e66565b500390565b600281046001821680611e2457607f821691505b60208210811415611e4557634e487b7160e01b600052602260045260246000fd5b50919050565b6000600019821415611e5f57611e5f611e66565b5060010190565b634e487b7160e01b600052601160045260246000fd5b634e487b7160e01b600052604160045260246000fd5b6001600160e01b03198116811461060b57600080fdfea164736f6c6343000800000a",
  "devdoc": {
    "kind": "dev",
    "methods": {
      "approve(address,uint256)": {
        "details": "See {IERC721-approve}."
      },
      "balanceOf(address)": {
        "details": "See {IERC721-balanceOf}."
      },
      "getApproved(uint256)": {
        "details": "See {IERC721-getApproved}."
      },
      "isApprovedForAll(address,address)": {
        "details": "See {IERC721-isApprovedForAll}."
      },
      "name()": {
        "details": "See {IERC721Metadata-name}."
      },
      "owner()": {
        "details": "Returns the address of the current owner."
      },
      "ownerOf(uint256)": {
        "details": "See {IERC721-ownerOf}."
      },
      "renounceOwnership()": {
        "details": "Leaves the contract without owner. It will not be possible to call `onlyOwner` functions anymore. Can only be called by the current owner. NOTE: Renouncing ownership will leave the contract without an owner, thereby removing any functionality that is only available to the owner."
      },
      "safeTransferFrom(address,address,uint256)": {
        "details": "See {IERC721-safeTransferFrom}."
      },
      "safeTransferFrom(address,address,uint256,bytes)": {
        "details": "See {IERC721-safeTransferFrom}."
      },
      "setApprovalForAll(address,bool)": {
        "details": "See {IERC721-setApprovalForAll}."
      },
      "supportsInterface(bytes4)": {
        "details": "See {IERC165-supportsInterface}."
      },
      "symbol()": {
        "details": "See {IERC721Metadata-symbol}."
      },
      "tokenByIndex(uint256)": {
        "details": "See {IERC721Enumerable-tokenByIndex}."
      },
      "tokenOfOwnerByIndex(address,uint256)": {
        "details": "See {IERC721Enumerable-tokenOfOwnerByIndex}."
      },
      "tokenURI(uint256)": {
        "details": "See {IERC721Metadata-tokenURI}."
      },
      "totalSupply()": {
        "details": "See {IERC721Enumerable-totalSupply}."
      },
      "transferFrom(address,address,uint256)": {
        "details": "See {IERC721-transferFrom}."
      },
      "transferOwnership(address)": {
        "details": "Transfers ownership of the contract to a new account (`newOwner`). Can only be called by the current owner."
      }
    },
    "version": 1
  },
  "userdoc": {
    "kind": "user",
    "methods": {},
    "version": 1
  },
  "storageLayout": {
    "storage": [
      {
        "astId": 129,
        "contract": "contracts/BatchMintBadge.sol:BatchMintBadge",
        "label": "_name",
        "offset": 0,
        "slot": "0",
        "type": "t_string_storage"
      },
      {
        "astId": 131,
        "contract": "contracts/BatchMintBadge.sol:BatchMintBadge",
        "label": "_symbol",
        "offset": 0,
        "slot": "1",
        "type": "t_string_storage"
      },
      {
        "astId": 135,
        "contract": "contracts/BatchMintBadge.sol:BatchMintBadge",
        "label": "_owners",
        "offset": 0,
        "slot": "2",
        "type": "t_mapping(t_uint256,t_address)"
      },
      {
        "astId": 139,
        "contract": "contracts/BatchMintBadge.sol:BatchMintBadge",
        "label": "_balances",
        "offset": 0,
        "slot": "3",
        "type": "t_mapping(t_address,t_uint256)"
      },
      {
        "astId": 143,
        "contract": "contracts/BatchMintBadge.sol:BatchMintBadge",
        "label": "_tokenApprovals",
        "offset": 0,
        "slot": "4",
        "type": "t_mapping(t_uint256,t_address)"
      },
      {
        "astId": 149,
        "contract": "contracts/BatchMintBadge.sol:BatchMintBadge",
        "label": "_operatorApprovals",
        "offset": 0,
        "slot": "5",
        "type": "t_mapping(t_address,t_mapping(t_address,t_bool))"
      },
      {
        "astId": 1070,
        "contract": "contracts/BatchMintBadge.sol:BatchMintBadge",
        "label": "_ownedTokens",
        "offset": 0,
        "slot": "6",
        "type": "t_mapping(t_address,t_mapping(t_uint256,t_uint256))"
      },
      {
        "astId": 1074,
        "contract": "contracts/BatchMintBadge.sol:BatchMintBadge",
        "label": "_ownedTokensIndex",
        "offset": 0,
        "slot": "7",
        "type": "t_mapping(t_uint256,t_uint256)"
      },
      {
        "astId": 1077,
        "contract": "contracts/BatchMintBadge.sol:BatchMintBadge",
        "label": "_allTokens",
        "offset": 0,
        "slot": "8",
        "type": "t_array(t_uint256)dyn_storage"
      },
      {
        "astId": 1081,
        "contract": "contracts/BatchMintBadge.sol:BatchMintBadge",
        "label": "_allTokensIndex",
        "offset": 0,
        "slot": "9",
        "type": "t_mapping(t_uint256,t_uint256)"
      },
      {
        "astId": 7,
        "contract": "contracts/BatchMintBadge.sol:BatchMintBadge",
        "label": "_owner",
        "offset": 0,
        "slot": "10",
        "type": "t_address"
      },
      {
        "astId": 2027,
        "contract": "contracts/BatchMintBadge.sol:BatchMintBadge",
        "label": "minters",
        "offset": 0,
        "slot": "11",
        "type": "t_mapping(t_address,t_bool)"
      },
      {
        "astId": 2029,
        "contract": "contracts/BatchMintBadge.sol:BatchMintBadge",
        "label": "_uri",
        "offset": 0,
        "slot": "12",
        "type": "t_string_storage"
      }
    ],
    "types": {
      "t_address": {
        "encoding": "inplace",
        "label": "address",
        "numberOfBytes": "20"
      },
      "t_array(t_uint256)dyn_storage": {
        "base": "t_uint256",
        "encoding": "dynamic_array",
        "label": "uint256[]",
        "numberOfBytes": "32"
      },
      "t_bool": {
        "encoding": "inplace",
        "label": "bool",
        "numberOfBytes": "1"
      },
      "t_mapping(t_address,t_bool)": {
        "encoding": "mapping",
        "key": "t_address",
        "label": "mapping(address => bool)",
        "numberOfBytes": "32",
        "value": "t_bool"
      },
      "t_mapping(t_address,t_mapping(t_address,t_bool))": {
        "encoding": "mapping",
        "key": "t_address",
        "label": "mapping(address => mapping(address => bool))",
        "numberOfBytes": "32",
        "value": "t_mapping(t_address,t_bool)"
      },
      "t_mapping(t_address,t_mapping(t_uint256,t_uint256))": {
        "encoding": "mapping",
        "key": "t_address",
        "label": "mapping(address => mapping(uint256 => uint256))",
        "numberOfBytes": "32",
        "value": "t_mapping(t_uint256,t_uint256)"
      },
      "t_mapping(t_address,t_uint256)": {
        "encoding": "mapping",
        "key": "t_address",
        "label": "mapping(address => uint256)",
        "numberOfBytes": "32",
        "value": "t_uint256"
      },
      "t_mapping(t_uint256,t_address)": {
        "encoding": "mapping",
        "key": "t_uint256",
        "label": "mapping(uint256 => address)",
        "numberOfBytes": "32",
        "value": "t_address"
      },
      "t_mapping(t_uint256,t_uint256)": {
        "encoding": "mapping",
        "key": "t_uint256",
        "label": "mapping(uint256 => uint256)",
        "numberOfBytes": "32",
        "value": "t_uint256"
      },
      "t_string_storage": {
        "encoding": "bytes",
        "label": "string",
        "numberOfBytes": "32"
      },
      "t_uint256": {
        "encoding": "inplace",
        "label": "uint256",
        "numberOfBytes": "32"
      }
    }
  }
}