{
  "address": "0xFf640471564A53B29241E329FE0f8D521f96dF3d",
  "abi": [
    {
      "anonymous": false,
      "inputs": [
        {
          "indexed": true,
          "internalType": "address",
          "name": "owner",
          "type": "address"
        },
        {
          "indexed": true,
          "internalType": "address",
          "name": "approved",
          "type": "address"
        },
        {
          "indexed": true,
          "internalType": "uint256",
          "name": "tokenId",
          "type": "uint256"
        }
      ],
      "name": "Approval",
      "type": "event"
    },
    {
      "anonymous": false,
      "inputs": [
        {
          "indexed": true,
          "internalType": "address",
          "name": "owner",
          "type": "address"
        },
        {
          "indexed": true,
          "internalType": "address",
          "name": "operator",
          "type": "address"
        },
        {
          "indexed": false,
          "internalType": "bool",
          "name": "approved",
          "type": "bool"
        }
      ],
      "name": "ApprovalForAll",
      "type": "event"
    },
    {
      "anonymous": false,
      "inputs": [
        {
          "indexed": true,
          "internalType": "address",
          "name": "minter",
          "type": "address"
        }
      ],
      "name": "MinterAdded",
      "type": "event"
    },
    {
      "anonymous": false,
      "inputs": [
        {
          "indexed": true,
          "internalType": "address",
          "name": "minter",
          "type": "address"
        }
      ],
      "name": "MinterRemoved",
      "type": "event"
    },
    {
      "anonymous": false,
      "inputs": [
        {
          "indexed": true,
          "internalType": "address",
          "name": "previousOwner",
          "type": "address"
        },
        {
          "indexed": true,
          "internalType": "address",
          "name": "newOwner",
          "type": "address"
        }
      ],
      "name": "OwnershipTransferred",
      "type": "event"
    },
    {
      "anonymous": false,
      "inputs": [
        {
          "indexed": true,
          "internalType": "address",
          "name": "from",
          "type": "address"
        },
        {
          "indexed": true,
          "internalType": "address",
          "name": "to",
          "type": "address"
        },
        {
          "indexed": true,
          "internalType": "uint256",
          "name": "tokenId",
          "type": "uint256"
        }
      ],
      "name": "Transfer",
      "type": "event"
    },
    {
      "inputs": [
        {
          "internalType": "address",
          "name": "minter",
          "type": "address"
        }
      ],
      "name": "addMinter",
      "outputs": [],
      "stateMutability": "nonpayable",
      "type": "function"
    },
    {
      "inputs": [
        {
          "internalType": "address",
          "name": "to",
          "type": "address"
        },
        {
          "internalType": "uint256",
          "name": "tokenId",
          "type": "uint256"
        }
      ],
      "name": "approve",
      "outputs": [],
      "stateMutability": "nonpayable",
      "type": "function"
    },
    {
      "inputs": [
        {
          "internalType": "address",
          "name": "owner",
          "type": "address"
        }
      ],
      "name": "balanceOf",
      "outputs": [
        {
          "internalType": "uint256",
          "name": "",
          "type": "uint256"
        }
      ],
      "stateMutability": "view",
      "type": "function"
    },
    {
      "inputs": [
        {
          "internalType": "address[]",
          "name": "receivers",
          "type": "address[]"
        },
        {
          "internalType": "uint256[]",
          "name": "tokenIDs",
          "type": "uint256[]"
        }
      ],
      "name": "batchMint",
      "outputs": [],
      "stateMutability": "nonpayable",
      "type": "function"
    },
    {
      "inputs": [
        {
          "internalType": "uint256",
          "name": "tokenId",
          "type": "uint256"
        }
      ],
      "name": "getApproved",
      "outputs": [
        {
          "internalType": "address",
          "name": "",
          "type": "address"
        }
      ],
      "stateMutability": "view",
      "type": "function"
    },
    {
      "inputs": [
        {
          "internalType": "string",
          "name": "name",
          "type": "string"
        },
        {
          "internalType": "string",
          "name": "symbol",
          "type": "string"
        },
        {
          "internalType": "string",
          "name": "uri",
          "type": "string"
        },
        {
          "internalType": "bool",
          "name": "withTokenId",
          "type": "bool"
        }
      ],
      "name": "initialize",
      "outputs": [],
      "stateMutability": "nonpayable",
      "type": "function"
    },
    {
      "inputs": [
        {
          "internalType": "address",
          "name": "owner",
          "type": "address"
        },
        {
          "internalType": "address",
          "name": "operator",
          "type": "address"
        }
      ],
      "name": "isApprovedForAll",
      "outputs": [
        {
          "internalType": "bool",
          "name": "",
          "type": "bool"
        }
      ],
      "stateMutability": "view",
      "type": "function"
    },
    {
      "inputs": [
        {
          "internalType": "address",
          "name": "receiver",
          "type": "address"
        },
        {
          "internalType": "uint256",
          "name": "tokenID",
          "type": "uint256"
        }
      ],
      "name": "mint",
      "outputs": [],
      "stateMutability": "nonpayable",
      "type": "function"
    },
    {
      "inputs": [],
      "name": "name",
      "outputs": [
        {
          "internalType": "string",
          "name": "",
          "type": "string"
        }
      ],
      "stateMutability": "view",
      "type": "function"
    },
    {
      "inputs": [],
      "name": "owner",
      "outputs": [
        {
          "internalType": "address",
          "name": "",
          "type": "address"
        }
      ],
      "stateMutability": "view",
      "type": "function"
    },
    {
      "inputs": [
        {
          "internalType": "uint256",
          "name": "tokenId",
          "type": "uint256"
        }
      ],
      "name": "ownerOf",
      "outputs": [
        {
          "internalType": "address",
          "name": "",
          "type": "address"
        }
      ],
      "stateMutability": "view",
      "type": "function"
    },
    {
      "inputs": [
        {
          "internalType": "address",
          "name": "minter",
          "type": "address"
        }
      ],
      "name": "removeMinter",
      "outputs": [],
      "stateMutability": "nonpayable",
      "type": "function"
    },
    {
      "inputs": [],
      "name": "renounceOwnership",
      "outputs": [],
      "stateMutability": "nonpayable",
      "type": "function"
    },
    {
      "inputs": [
        {
          "internalType": "address",
          "name": "from",
          "type": "address"
        },
        {
          "internalType": "address",
          "name": "to",
          "type": "address"
        },
        {
          "internalType": "uint256",
          "name": "tokenId",
          "type": "uint256"
        }
      ],
      "name": "safeTransferFrom",
      "outputs": [],
      "stateMutability": "nonpayable",
      "type": "function"
    },
    {
      "inputs": [
        {
          "internalType": "address",
          "name": "from",
          "type": "address"
        },
        {
          "internalType": "address",
          "name": "to",
          "type": "address"
        },
        {
          "internalType": "uint256",
          "name": "tokenId",
          "type": "uint256"
        },
        {
          "internalType": "bytes",
          "name": "_data",
          "type": "bytes"
        }
      ],
      "name": "safeTransferFrom",
      "outputs": [],
      "stateMutability": "nonpayable",
      "type": "function"
    },
    {
      "inputs": [
        {
          "internalType": "address",
          "name": "operator",
          "type": "address"
        },
        {
          "internalType": "bool",
          "name": "approved",
          "type": "bool"
        }
      ],
      "name": "setApprovalForAll",
      "outputs": [],
      "stateMutability": "nonpayable",
      "type": "function"
    },
    {
      "inputs": [
        {
          "internalType": "string",
          "name": "uri",
          "type": "string"
        }
      ],
      "name": "setTokenURI",
      "outputs": [],
      "stateMutability": "nonpayable",
      "type": "function"
    },
    {
      "inputs": [
        {
          "internalType": "bytes4",
          "name": "interfaceId",
          "type": "bytes4"
        }
      ],
      "name": "supportsInterface",
      "outputs": [
        {
          "internalType": "bool",
          "name": "",
          "type": "bool"
        }
      ],
      "stateMutability": "view",
      "type": "function"
    },
    {
      "inputs": [],
      "name": "symbol",
      "outputs": [
        {
          "internalType": "string",
          "name": "",
          "type": "string"
        }
      ],
      "stateMutability": "view",
      "type": "function"
    },
    {
      "inputs": [
        {
          "internalType": "uint256",
          "name": "index",
          "type": "uint256"
        }
      ],
      "name": "tokenByIndex",
      "outputs": [
        {
          "internalType": "uint256",
          "name": "",
          "type": "uint256"
        }
      ],
      "stateMutability": "view",
      "type": "function"
    },
    {
      "inputs": [
        {
          "internalType": "address",
          "name": "owner",
          "type": "address"
        },
        {
          "internalType": "uint256",
          "name": "index",
          "type": "uint256"
        }
      ],
      "name": "tokenOfOwnerByIndex",
      "outputs": [
        {
          "internalType": "uint256",
          "name": "",
          "type": "uint256"
        }
      ],
      "stateMutability": "view",
      "type": "function"
    },
    {
      "inputs": [
        {
          "internalType": "uint256",
          "name": "tokenId",
          "type": "uint256"
        }
      ],
      "name": "tokenURI",
      "outputs": [
        {
          "internalType": "string",
          "name": "",
          "type": "string"
        }
      ],
      "stateMutability": "view",
      "type": "function"
    },
    {
      "inputs": [],
      "name": "totalSupply",
      "outputs": [
        {
          "internalType": "uint256",
          "name": "",
          "type": "uint256"
        }
      ],
      "stateMutability": "view",
      "type": "function"
    },
    {
      "inputs": [
        {
          "internalType": "address",
          "name": "from",
          "type": "address"
        },
        {
          "internalType": "address",
          "name": "to",
          "type": "address"
        },
        {
          "internalType": "uint256",
          "name": "tokenId",
          "type": "uint256"
        }
      ],
      "name": "transferFrom",
      "outputs": [],
      "stateMutability": "nonpayable",
      "type": "function"
    },
    {
      "inputs": [
        {
          "internalType": "address",
          "name": "newOwner",
          "type": "address"
        }
      ],
      "name": "transferOwnership",
      "outputs": [],
      "stateMutability": "nonpayable",
      "type": "function"
    }
  ],
  "transactionHash": "0x6e04d48a90dfe9351411621a70d8c5c4305f162ca7a9735f405fb44307745c27",
  "args": [],
  "solcInputHash": "85d63f875d75e540bbec8b911fd348a8",
  "bytecode": "0x608060405234801561001057600080fd5b506126d4806100206000396000f3fe608060405234801561001057600080fd5b50600436106101a35760003560e01c80636352211e116100ee578063983b2d5611610097578063c87b56dd11610071578063c87b56dd1461034f578063e0df5b6f14610362578063e985e9c514610375578063f2fde38b146103b157600080fd5b8063983b2d5614610316578063a22cb46514610329578063b88d4fde1461033c57600080fd5b8063715018a6116100c8578063715018a6146102f55780638da5cb5b146102fd57806395d89b411461030e57600080fd5b80636352211e146102bc57806368573107146102cf57806370a08231146102e257600080fd5b80632c3750261161015057806340c10f191161012a57806340c10f191461028357806342842e0e146102965780634f6ccce7146102a957600080fd5b80632c3750261461024a5780632f745c591461025d5780633092afd51461027057600080fd5b8063095ea7b311610181578063095ea7b31461021057806318160ddd1461022557806323b872dd1461023757600080fd5b806301ffc9a7146101a857806306fdde03146101d0578063081812fc146101e5575b600080fd5b6101bb6101b636600461228a565b6103c4565b60405190151581526020015b60405180910390f35b6101d86103ef565b6040516101c79190612502565b6101f86101f3366004612392565b610481565b6040516001600160a01b0390911681526020016101c7565b61022361021e366004612199565b61051b565b005b6099545b6040519081526020016101c7565b6102236102453660046120b7565b610631565b6102236102583660046122f9565b6106b8565b61022961026b366004612199565b6107d4565b61022361027e366004612069565b61087c565b610223610291366004612199565b610941565b6102236102a43660046120b7565b6109b9565b6102296102b7366004612392565b6109d4565b6101f86102ca366004612392565b610a78565b6102236102dd3660046121c3565b610aef565b6102296102f0366004612069565b610c04565b610223610c9e565b60c9546001600160a01b03166101f8565b6101d8610d04565b610223610324366004612069565b610d13565b61022361033736600461216f565b610dd9565b61022361034a3660046120f3565b610de4565b6101d861035d366004612392565b610e72565b6102236103703660046122c4565b610fba565b6101bb610383366004612084565b6001600160a01b039182166000908152606a6020908152604080832093909416825291909152205460ff1690565b6102236103bf366004612069565b611037565b60006001600160e01b0319821663780e9d6360e01b14806103e957506103e982611116565b92915050565b6060606580546103fe906125d9565b80601f016020809104026020016040519081016040528092919081815260200182805461042a906125d9565b80156104775780601f1061044c57610100808354040283529160200191610477565b820191906000526020600020905b81548152906001019060200180831161045a57829003601f168201915b5050505050905090565b6000818152606760205260408120546001600160a01b03166104ff5760405162461bcd60e51b815260206004820152602c60248201527f4552433732313a20617070726f76656420717565727920666f72206e6f6e657860448201526b34b9ba32b73a103a37b5b2b760a11b60648201526084015b60405180910390fd5b506000908152606960205260409020546001600160a01b031690565b600061052682610a78565b9050806001600160a01b0316836001600160a01b031614156105945760405162461bcd60e51b815260206004820152602160248201527f4552433732313a20617070726f76616c20746f2063757272656e74206f776e656044820152603960f91b60648201526084016104f6565b336001600160a01b03821614806105b057506105b08133610383565b6106225760405162461bcd60e51b815260206004820152603860248201527f4552433732313a20617070726f76652063616c6c6572206973206e6f74206f7760448201527f6e6572206e6f7220617070726f76656420666f7220616c6c000000000000000060648201526084016104f6565b61062c8383611166565b505050565b61063b33826111d4565b6106ad5760405162461bcd60e51b815260206004820152603160248201527f4552433732313a207472616e736665722063616c6c6572206973206e6f74206f60448201527f776e6572206e6f7220617070726f76656400000000000000000000000000000060648201526084016104f6565b61062c8383836112cb565b600054610100900460ff166106d35760005460ff16156106d7565b303b155b6107495760405162461bcd60e51b815260206004820152602e60248201527f496e697469616c697a61626c653a20636f6e747261637420697320616c72656160448201527f647920696e697469616c697a656400000000000000000000000000000000000060648201526084016104f6565b600054610100900460ff1615801561076b576000805461ffff19166101011790555b61077361148a565b61077d85856114fd565b82516107909060fc906020860190611eb3565b5060fd805483151560ff199182161790915533600090815260fb602052604090208054909116600117905580156107cd576000805461ff00191690555b5050505050565b60006107df83610c04565b82106108535760405162461bcd60e51b815260206004820152602b60248201527f455243373231456e756d657261626c653a206f776e657220696e646578206f7560448201527f74206f6620626f756e647300000000000000000000000000000000000000000060648201526084016104f6565b506001600160a01b03919091166000908152609760209081526040808320938352929052205490565b60c9546001600160a01b031633146108d65760405162461bcd60e51b815260206004820181905260248201527f4f776e61626c653a2063616c6c6572206973206e6f7420746865206f776e657260448201526064016104f6565b6001600160a01b038116600090815260fb602052604090205460ff161561093e576001600160a01b038116600081815260fb6020526040808220805460ff19169055517fe94479a9f7e1952cc78f2d6baab678adc1b772d936c6583def489e524cb666929190a25b50565b33600090815260fb602052604090205460ff166109ab5760405162461bcd60e51b815260206004820152602260248201527f42616467654e46543a2063616c6c6572206973206e6f7420746865206d696e7460448201526132b960f11b60648201526084016104f6565b6109b58282611572565b5050565b61062c83838360405180602001604052806000815250610de4565b60006109df60995490565b8210610a535760405162461bcd60e51b815260206004820152602c60248201527f455243373231456e756d657261626c653a20676c6f62616c20696e646578206f60448201527f7574206f6620626f756e6473000000000000000000000000000000000000000060648201526084016104f6565b60998281548110610a6657610a66612685565b90600052602060002001549050919050565b6000818152606760205260408120546001600160a01b0316806103e95760405162461bcd60e51b815260206004820152602960248201527f4552433732313a206f776e657220717565727920666f72206e6f6e657869737460448201526832b73a103a37b5b2b760b91b60648201526084016104f6565b33600090815260fb602052604090205460ff16610b595760405162461bcd60e51b815260206004820152602260248201527f42616467654e46543a2063616c6c6572206973206e6f7420746865206d696e7460448201526132b960f11b60648201526084016104f6565b8051825114610baa5760405162461bcd60e51b815260206004820152601f60248201527f42616467654e46543a206172726179206c656e677468206469736d617463680060448201526064016104f6565b60005b825181101561062c57610bf2838281518110610bcb57610bcb612685565b6020026020010151838381518110610be557610be5612685565b6020026020010151611572565b80610bfc81612614565b915050610bad565b60006001600160a01b038216610c825760405162461bcd60e51b815260206004820152602a60248201527f4552433732313a2062616c616e636520717565727920666f7220746865207a6560448201527f726f20616464726573730000000000000000000000000000000000000000000060648201526084016104f6565b506001600160a01b031660009081526068602052604090205490565b60c9546001600160a01b03163314610cf85760405162461bcd60e51b815260206004820181905260248201527f4f776e61626c653a2063616c6c6572206973206e6f7420746865206f776e657260448201526064016104f6565b610d02600061158c565b565b6060606680546103fe906125d9565b60c9546001600160a01b03163314610d6d5760405162461bcd60e51b815260206004820181905260248201527f4f776e61626c653a2063616c6c6572206973206e6f7420746865206f776e657260448201526064016104f6565b6001600160a01b038116600090815260fb602052604090205460ff1661093e576001600160a01b038116600081815260fb6020526040808220805460ff19166001179055517f6ae172837ea30b801fbfcdd4108aa1d5bf8ff775444fd70256b44e6bf3dfc3f69190a250565b6109b53383836115de565b610dee33836111d4565b610e605760405162461bcd60e51b815260206004820152603160248201527f4552433732313a207472616e736665722063616c6c6572206973206e6f74206f60448201527f776e6572206e6f7220617070726f76656400000000000000000000000000000060648201526084016104f6565b610e6c848484846116ad565b50505050565b6000818152606760205260409020546060906001600160a01b0316610eeb5760405162461bcd60e51b815260206004820152602960248201527f42616467654e46543a2055524920717565727920666f72206e6f6e657869737460448201526832b73a103a37b5b2b760b91b60648201526084016104f6565b60fd5460ff1615610f285760fc610f018361172b565b604051602001610f129291906123f3565b6040516020818303038152906040529050919050565b60fc8054610f35906125d9565b80601f0160208091040260200160405190810160405280929190818152602001828054610f61906125d9565b8015610fae5780601f10610f8357610100808354040283529160200191610fae565b820191906000526020600020905b815481529060010190602001808311610f9157829003601f168201915b50505050509050919050565b33600090815260fb602052604090205460ff166110245760405162461bcd60e51b815260206004820152602260248201527f42616467654e46543a2063616c6c6572206973206e6f7420746865206d696e7460448201526132b960f11b60648201526084016104f6565b80516109b59060fc906020840190611eb3565b60c9546001600160a01b031633146110915760405162461bcd60e51b815260206004820181905260248201527f4f776e61626c653a2063616c6c6572206973206e6f7420746865206f776e657260448201526064016104f6565b6001600160a01b03811661110d5760405162461bcd60e51b815260206004820152602660248201527f4f776e61626c653a206e6577206f776e657220697320746865207a65726f206160448201527f646472657373000000000000000000000000000000000000000000000000000060648201526084016104f6565b61093e8161158c565b60006001600160e01b031982166380ac58cd60e01b148061114757506001600160e01b03198216635b5e139f60e01b145b806103e957506301ffc9a760e01b6001600160e01b03198316146103e9565b600081815260696020526040902080546001600160a01b0319166001600160a01b038416908117909155819061119b82610a78565b6001600160a01b03167f8c5be1e5ebec7d5bd14f71427d1e84f3dd0314c0f7b2291e5b200ac8c7c3b92560405160405180910390a45050565b6000818152606760205260408120546001600160a01b031661124d5760405162461bcd60e51b815260206004820152602c60248201527f4552433732313a206f70657261746f7220717565727920666f72206e6f6e657860448201526b34b9ba32b73a103a37b5b2b760a11b60648201526084016104f6565b600061125883610a78565b9050806001600160a01b0316846001600160a01b031614806112935750836001600160a01b031661128884610481565b6001600160a01b0316145b806112c357506001600160a01b038082166000908152606a602090815260408083209388168352929052205460ff165b949350505050565b826001600160a01b03166112de82610a78565b6001600160a01b03161461135a5760405162461bcd60e51b815260206004820152602560248201527f4552433732313a207472616e736665722066726f6d20696e636f72726563742060448201527f6f776e657200000000000000000000000000000000000000000000000000000060648201526084016104f6565b6001600160a01b0382166113bc5760405162461bcd60e51b8152602060048201526024808201527f4552433732313a207472616e7366657220746f20746865207a65726f206164646044820152637265737360e01b60648201526084016104f6565b6113c7838383611841565b6113d2600082611166565b6001600160a01b03831660009081526068602052604081208054600192906113fb908490612596565b90915550506001600160a01b038216600090815260686020526040812080546001929061142990849061256a565b909155505060008181526067602052604080822080546001600160a01b0319166001600160a01b0386811691821790925591518493918716917fddf252ad1be2c89b69c2b068fc378daa952ba7f163c4a11628f55a4df523b3ef91a4505050565b600054610100900460ff166114f55760405162461bcd60e51b815260206004820152602b60248201527f496e697469616c697a61626c653a20636f6e7472616374206973206e6f74206960448201526a6e697469616c697a696e6760a81b60648201526084016104f6565b610d026118f9565b600054610100900460ff166115685760405162461bcd60e51b815260206004820152602b60248201527f496e697469616c697a61626c653a20636f6e7472616374206973206e6f74206960448201526a6e697469616c697a696e6760a81b60648201526084016104f6565b6109b5828261196d565b6109b58282604051806020016040528060008152506119ff565b60c980546001600160a01b038381166001600160a01b0319831681179093556040519116919082907f8be0079c531659141344cd1fd0a4f28419497f9722a3daafe3b4186f6b6457e090600090a35050565b816001600160a01b0316836001600160a01b031614156116405760405162461bcd60e51b815260206004820152601960248201527f4552433732313a20617070726f766520746f2063616c6c65720000000000000060448201526064016104f6565b6001600160a01b038381166000818152606a6020908152604080832094871680845294825291829020805460ff191686151590811790915591519182527f17307eab39ab6107e8899845ad3d59bd9653f200f220920489ca2b5937696c31910160405180910390a3505050565b6116b88484846112cb565b6116c484848484611a7d565b610e6c5760405162461bcd60e51b815260206004820152603260248201527f4552433732313a207472616e7366657220746f206e6f6e20455243373231526560448201527131b2b4bb32b91034b6b83632b6b2b73a32b960711b60648201526084016104f6565b60608161174f5750506040805180820190915260018152600360fc1b602082015290565b8160005b8115611779578061176381612614565b91506117729050600a83612582565b9150611753565b60008167ffffffffffffffff8111156117945761179461269b565b6040519080825280601f01601f1916602001820160405280156117be576020820181803683370190505b5090505b84156112c3576117d3600183612596565b91506117e0600a8661262f565b6117eb90603061256a565b60f81b81838151811061180057611800612685565b60200101907effffffffffffffffffffffffffffffffffffffffffffffffffffffffffffff1916908160001a90535061183a600a86612582565b94506117c2565b6001600160a01b03831661189c5761189781609980546000838152609a60205260408120829055600182018355919091527f72a152ddfb8e864297c917af52ea6c1c68aead0fee1a62673fcc7e0c94979d000155565b6118bf565b816001600160a01b0316836001600160a01b0316146118bf576118bf8382611bd5565b6001600160a01b0382166118d65761062c81611c72565b826001600160a01b0316826001600160a01b03161461062c5761062c8282611d21565b600054610100900460ff166119645760405162461bcd60e51b815260206004820152602b60248201527f496e697469616c697a61626c653a20636f6e7472616374206973206e6f74206960448201526a6e697469616c697a696e6760a81b60648201526084016104f6565b610d023361158c565b600054610100900460ff166119d85760405162461bcd60e51b815260206004820152602b60248201527f496e697469616c697a61626c653a20636f6e7472616374206973206e6f74206960448201526a6e697469616c697a696e6760a81b60648201526084016104f6565b81516119eb906065906020850190611eb3565b50805161062c906066906020840190611eb3565b611a098383611d65565b611a166000848484611a7d565b61062c5760405162461bcd60e51b815260206004820152603260248201527f4552433732313a207472616e7366657220746f206e6f6e20455243373231526560448201527131b2b4bb32b91034b6b83632b6b2b73a32b960711b60648201526084016104f6565b60006001600160a01b0384163b15611bca57604051630a85bd0160e11b81526001600160a01b0385169063150b7a0290611ac19033908990889088906004016124c6565b602060405180830381600087803b158015611adb57600080fd5b505af1925050508015611b0b575060408051601f3d908101601f19168201909252611b08918101906122a7565b60015b611bb0573d808015611b39576040519150601f19603f3d011682016040523d82523d6000602084013e611b3e565b606091505b508051611ba85760405162461bcd60e51b815260206004820152603260248201527f4552433732313a207472616e7366657220746f206e6f6e20455243373231526560448201527131b2b4bb32b91034b6b83632b6b2b73a32b960711b60648201526084016104f6565b805181602001fd5b6001600160e01b031916630a85bd0160e11b1490506112c3565b506001949350505050565b60006001611be284610c04565b611bec9190612596565b600083815260986020526040902054909150808214611c3f576001600160a01b03841660009081526097602090815260408083208584528252808320548484528184208190558352609890915290208190555b5060009182526098602090815260408084208490556001600160a01b039094168352609781528383209183525290812055565b609954600090611c8490600190612596565b6000838152609a602052604081205460998054939450909284908110611cac57611cac612685565b906000526020600020015490508060998381548110611ccd57611ccd612685565b6000918252602080832090910192909255828152609a90915260408082208490558582528120556099805480611d0557611d0561266f565b6001900381819060005260206000200160009055905550505050565b6000611d2c83610c04565b6001600160a01b039093166000908152609760209081526040808320868452825280832085905593825260989052919091209190915550565b6001600160a01b038216611dbb5760405162461bcd60e51b815260206004820181905260248201527f4552433732313a206d696e7420746f20746865207a65726f206164647265737360448201526064016104f6565b6000818152606760205260409020546001600160a01b031615611e205760405162461bcd60e51b815260206004820152601c60248201527f4552433732313a20746f6b656e20616c7265616479206d696e7465640000000060448201526064016104f6565b611e2c60008383611841565b6001600160a01b0382166000908152606860205260408120805460019290611e5590849061256a565b909155505060008181526067602052604080822080546001600160a01b0319166001600160a01b03861690811790915590518392907fddf252ad1be2c89b69c2b068fc378daa952ba7f163c4a11628f55a4df523b3ef908290a45050565b828054611ebf906125d9565b90600052602060002090601f016020900481019282611ee15760008555611f27565b82601f10611efa57805160ff1916838001178555611f27565b82800160010185558215611f27579182015b82811115611f27578251825591602001919060010190611f0c565b50611f33929150611f37565b5090565b5b80821115611f335760008155600101611f38565b600067ffffffffffffffff831115611f6657611f6661269b565b611f79601f8401601f1916602001612515565b9050828152838383011115611f8d57600080fd5b828260208301376000602084830101529392505050565b80356001600160a01b0381168114611fbb57600080fd5b919050565b600082601f830112611fd157600080fd5b81356020611fe6611fe183612546565b612515565b80838252828201915082860187848660051b890101111561200657600080fd5b60005b8581101561202557813584529284019290840190600101612009565b5090979650505050505050565b80358015158114611fbb57600080fd5b600082601f83011261205357600080fd5b61206283833560208501611f4c565b9392505050565b60006020828403121561207b57600080fd5b61206282611fa4565b6000806040838503121561209757600080fd5b6120a083611fa4565b91506120ae60208401611fa4565b90509250929050565b6000806000606084860312156120cc57600080fd5b6120d584611fa4565b92506120e360208501611fa4565b9150604084013590509250925092565b6000806000806080858703121561210957600080fd5b61211285611fa4565b935061212060208601611fa4565b925060408501359150606085013567ffffffffffffffff81111561214357600080fd5b8501601f8101871361215457600080fd5b61216387823560208401611f4c565b91505092959194509250565b6000806040838503121561218257600080fd5b61218b83611fa4565b91506120ae60208401612032565b600080604083850312156121ac57600080fd5b6121b583611fa4565b946020939093013593505050565b600080604083850312156121d657600080fd5b823567ffffffffffffffff808211156121ee57600080fd5b818501915085601f83011261220257600080fd5b81356020612212611fe183612546565b8083825282820191508286018a848660051b890101111561223257600080fd5b600096505b8487101561225c5761224881611fa4565b835260019690960195918301918301612237565b509650508601359250508082111561227357600080fd5b5061228085828601611fc0565b9150509250929050565b60006020828403121561229c57600080fd5b8135612062816126b1565b6000602082840312156122b957600080fd5b8151612062816126b1565b6000602082840312156122d657600080fd5b813567ffffffffffffffff8111156122ed57600080fd5b6112c384828501612042565b6000806000806080858703121561230f57600080fd5b843567ffffffffffffffff8082111561232757600080fd5b61233388838901612042565b9550602087013591508082111561234957600080fd5b61235588838901612042565b9450604087013591508082111561236b57600080fd5b5061237887828801612042565b92505061238760608601612032565b905092959194509250565b6000602082840312156123a457600080fd5b5035919050565b600081518084526123c38160208601602086016125ad565b601f01601f19169290920160200192915050565b600081516123e98185602086016125ad565b9290920192915050565b600080845481600182811c91508083168061240f57607f831692505b602080841082141561242f57634e487b7160e01b86526022600452602486fd5b818015612443576001811461245457612481565b60ff19861689528489019650612481565b60008b81526020902060005b868110156124795781548b820152908501908301612460565b505084890196505b5050505050506124bd61249482866123d7565b7f2e6a736f6e000000000000000000000000000000000000000000000000000000815260050190565b95945050505050565b60006001600160a01b038087168352808616602084015250836040830152608060608301526124f860808301846123ab565b9695505050505050565b60208152600061206260208301846123ab565b604051601f8201601f1916810167ffffffffffffffff8111828210171561253e5761253e61269b565b604052919050565b600067ffffffffffffffff8211156125605761256061269b565b5060051b60200190565b6000821982111561257d5761257d612643565b500190565b60008261259157612591612659565b500490565b6000828210156125a8576125a8612643565b500390565b60005b838110156125c85781810151838201526020016125b0565b83811115610e6c5750506000910152565b600181811c908216806125ed57607f821691505b6020821081141561260e57634e487b7160e01b600052602260045260246000fd5b50919050565b600060001982141561262857612628612643565b5060010190565b60008261263e5761263e612659565b500690565b634e487b7160e01b600052601160045260246000fd5b634e487b7160e01b600052601260045260246000fd5b634e487b7160e01b600052603160045260246000fd5b634e487b7160e01b600052603260045260246000fd5b634e487b7160e01b600052604160045260246000fd5b6001600160e01b03198116811461093e57600080fdfea164736f6c6343000807000a",
  "devdoc": {
    "kind": "dev",
    "methods": {
      "approve(address,uint256)": {
        "details": "See {IERC721-approve}."
      },
      "balanceOf(address)": {
        "details": "See {IERC721-balanceOf}."
      },
      "getApproved(uint256)": {
        "details": "See {IERC721-getApproved}."
      },
      "isApprovedForAll(address,address)": {
        "details": "See {IERC721-isApprovedForAll}."
      },
      "name()": {
        "details": "See {IERC721Metadata-name}."
      },
      "owner()": {
        "details": "Returns the address of the current owner."
      },
      "ownerOf(uint256)": {
        "details": "See {IERC721-ownerOf}."
      },
      "renounceOwnership()": {
        "details": "Leaves the contract without owner. It will not be possible to call `onlyOwner` functions anymore. Can only be called by the current owner. NOTE: Renouncing ownership will leave the contract without an owner, thereby removing any functionality that is only available to the owner."
      },
      "safeTransferFrom(address,address,uint256)": {
        "details": "See {IERC721-safeTransferFrom}."
      },
      "safeTransferFrom(address,address,uint256,bytes)": {
        "details": "See {IERC721-safeTransferFrom}."
      },
      "setApprovalForAll(address,bool)": {
        "details": "See {IERC721-setApprovalForAll}."
      },
      "supportsInterface(bytes4)": {
        "details": "See {IERC165-supportsInterface}."
      },
      "symbol()": {
        "details": "See {IERC721Metadata-symbol}."
      },
      "tokenByIndex(uint256)": {
        "details": "See {IERC721Enumerable-tokenByIndex}."
      },
      "tokenOfOwnerByIndex(address,uint256)": {
        "details": "See {IERC721Enumerable-tokenOfOwnerByIndex}."
      },
      "tokenURI(uint256)": {
        "details": "See {IERC721Metadata-tokenURI}."
      },
      "totalSupply()": {
        "details": "See {IERC721Enumerable-totalSupply}."
      },
      "transferFrom(address,address,uint256)": {
        "details": "See {IERC721-transferFrom}."
      },
      "transferOwnership(address)": {
        "details": "Transfers ownership of the contract to a new account (`newOwner`). Can only be called by the current owner."
      }
    },
    "version": 1
  },
  "userdoc": {
    "kind": "user",
    "methods": {},
    "version": 1
  },
  "storageLayout": {
    "storage": [
      {
        "astId": 130,
        "contract": "contracts/BadgeNFT.sol:BadgeNFT",
        "label": "_initialized",
        "offset": 0,
        "slot": "0",
        "type": "t_bool"
      },
      {
        "astId": 133,
        "contract": "contracts/BadgeNFT.sol:BadgeNFT",
        "label": "_initializing",
        "offset": 1,
        "slot": "0",
        "type": "t_bool"
      },
      {
        "astId": 1922,
        "contract": "contracts/BadgeNFT.sol:BadgeNFT",
        "label": "__gap",
        "offset": 0,
        "slot": "1",
        "type": "t_array(t_uint256)50_storage"
      },
      {
        "astId": 2169,
        "contract": "contracts/BadgeNFT.sol:BadgeNFT",
        "label": "__gap",
        "offset": 0,
        "slot": "51",
        "type": "t_array(t_uint256)50_storage"
      },
      {
        "astId": 226,
        "contract": "contracts/BadgeNFT.sol:BadgeNFT",
        "label": "_name",
        "offset": 0,
        "slot": "101",
        "type": "t_string_storage"
      },
      {
        "astId": 228,
        "contract": "contracts/BadgeNFT.sol:BadgeNFT",
        "label": "_symbol",
        "offset": 0,
        "slot": "102",
        "type": "t_string_storage"
      },
      {
        "astId": 232,
        "contract": "contracts/BadgeNFT.sol:BadgeNFT",
        "label": "_owners",
        "offset": 0,
        "slot": "103",
        "type": "t_mapping(t_uint256,t_address)"
      },
      {
        "astId": 236,
        "contract": "contracts/BadgeNFT.sol:BadgeNFT",
        "label": "_balances",
        "offset": 0,
        "slot": "104",
        "type": "t_mapping(t_address,t_uint256)"
      },
      {
        "astId": 240,
        "contract": "contracts/BadgeNFT.sol:BadgeNFT",
        "label": "_tokenApprovals",
        "offset": 0,
        "slot": "105",
        "type": "t_mapping(t_uint256,t_address)"
      },
      {
        "astId": 246,
        "contract": "contracts/BadgeNFT.sol:BadgeNFT",
        "label": "_operatorApprovals",
        "offset": 0,
        "slot": "106",
        "type": "t_mapping(t_address,t_mapping(t_address,t_bool))"
      },
      {
        "astId": 1087,
        "contract": "contracts/BadgeNFT.sol:BadgeNFT",
        "label": "__gap",
        "offset": 0,
        "slot": "107",
        "type": "t_array(t_uint256)44_storage"
      },
      {
        "astId": 1252,
        "contract": "contracts/BadgeNFT.sol:BadgeNFT",
        "label": "_ownedTokens",
        "offset": 0,
        "slot": "151",
        "type": "t_mapping(t_address,t_mapping(t_uint256,t_uint256))"
      },
      {
        "astId": 1256,
        "contract": "contracts/BadgeNFT.sol:BadgeNFT",
        "label": "_ownedTokensIndex",
        "offset": 0,
        "slot": "152",
        "type": "t_mapping(t_uint256,t_uint256)"
      },
      {
        "astId": 1259,
        "contract": "contracts/BadgeNFT.sol:BadgeNFT",
        "label": "_allTokens",
        "offset": 0,
        "slot": "153",
        "type": "t_array(t_uint256)dyn_storage"
      },
      {
        "astId": 1263,
        "contract": "contracts/BadgeNFT.sol:BadgeNFT",
        "label": "_allTokensIndex",
        "offset": 0,
        "slot": "154",
        "type": "t_mapping(t_uint256,t_uint256)"
      },
      {
        "astId": 1579,
        "contract": "contracts/BadgeNFT.sol:BadgeNFT",
        "label": "__gap",
        "offset": 0,
        "slot": "155",
        "type": "t_array(t_uint256)46_storage"
      },
      {
        "astId": 10,
        "contract": "contracts/BadgeNFT.sol:BadgeNFT",
        "label": "_owner",
        "offset": 0,
        "slot": "201",
        "type": "t_address"
      },
      {
        "astId": 122,
        "contract": "contracts/BadgeNFT.sol:BadgeNFT",
        "label": "__gap",
        "offset": 0,
        "slot": "202",
        "type": "t_array(t_uint256)49_storage"
      },
      {
        "astId": 2205,
        "contract": "contracts/BadgeNFT.sol:BadgeNFT",
        "label": "minters",
        "offset": 0,
        "slot": "251",
        "type": "t_mapping(t_address,t_bool)"
      },
      {
        "astId": 2207,
        "contract": "contracts/BadgeNFT.sol:BadgeNFT",
        "label": "_uri",
        "offset": 0,
        "slot": "252",
        "type": "t_string_storage"
      },
      {
        "astId": 2209,
        "contract": "contracts/BadgeNFT.sol:BadgeNFT",
        "label": "_withTokenId",
        "offset": 0,
        "slot": "253",
        "type": "t_bool"
      }
    ],
    "types": {
      "t_address": {
        "encoding": "inplace",
        "label": "address",
        "numberOfBytes": "20"
      },
      "t_array(t_uint256)44_storage": {
        "base": "t_uint256",
        "encoding": "inplace",
        "label": "uint256[44]",
        "numberOfBytes": "1408"
      },
      "t_array(t_uint256)46_storage": {
        "base": "t_uint256",
        "encoding": "inplace",
        "label": "uint256[46]",
        "numberOfBytes": "1472"
      },
      "t_array(t_uint256)49_storage": {
        "base": "t_uint256",
        "encoding": "inplace",
        "label": "uint256[49]",
        "numberOfBytes": "1568"
      },
      "t_array(t_uint256)50_storage": {
        "base": "t_uint256",
        "encoding": "inplace",
        "label": "uint256[50]",
        "numberOfBytes": "1600"
      },
      "t_array(t_uint256)dyn_storage": {
        "base": "t_uint256",
        "encoding": "dynamic_array",
        "label": "uint256[]",
        "numberOfBytes": "32"
      },
      "t_bool": {
        "encoding": "inplace",
        "label": "bool",
        "numberOfBytes": "1"
      },
      "t_mapping(t_address,t_bool)": {
        "encoding": "mapping",
        "key": "t_address",
        "label": "mapping(address => bool)",
        "numberOfBytes": "32",
        "value": "t_bool"
      },
      "t_mapping(t_address,t_mapping(t_address,t_bool))": {
        "encoding": "mapping",
        "key": "t_address",
        "label": "mapping(address => mapping(address => bool))",
        "numberOfBytes": "32",
        "value": "t_mapping(t_address,t_bool)"
      },
      "t_mapping(t_address,t_mapping(t_uint256,t_uint256))": {
        "encoding": "mapping",
        "key": "t_address",
        "label": "mapping(address => mapping(uint256 => uint256))",
        "numberOfBytes": "32",
        "value": "t_mapping(t_uint256,t_uint256)"
      },
      "t_mapping(t_address,t_uint256)": {
        "encoding": "mapping",
        "key": "t_address",
        "label": "mapping(address => uint256)",
        "numberOfBytes": "32",
        "value": "t_uint256"
      },
      "t_mapping(t_uint256,t_address)": {
        "encoding": "mapping",
        "key": "t_uint256",
        "label": "mapping(uint256 => address)",
        "numberOfBytes": "32",
        "value": "t_address"
      },
      "t_mapping(t_uint256,t_uint256)": {
        "encoding": "mapping",
        "key": "t_uint256",
        "label": "mapping(uint256 => uint256)",
        "numberOfBytes": "32",
        "value": "t_uint256"
      },
      "t_string_storage": {
        "encoding": "bytes",
        "label": "string",
        "numberOfBytes": "32"
      },
      "t_uint256": {
        "encoding": "inplace",
        "label": "uint256",
        "numberOfBytes": "32"
      }
    }
  }
}