{
  "address": "0x6345451615c3C4f9088Ee05fa550dD4Cb2D9267c",
  "abi": [
    {
      "inputs": [
        {
          "internalType": "string",
          "name": "uri_",
          "type": "string"
        }
      ],
      "stateMutability": "nonpayable",
      "type": "constructor"
    },
    {
      "anonymous": false,
      "inputs": [
        {
          "indexed": true,
          "internalType": "address",
          "name": "account",
          "type": "address"
        },
        {
          "indexed": true,
          "internalType": "address",
          "name": "operator",
          "type": "address"
        },
        {
          "indexed": false,
          "internalType": "bool",
          "name": "approved",
          "type": "bool"
        }
      ],
      "name": "ApprovalForAll",
      "type": "event"
    },
    {
      "anonymous": false,
      "inputs": [
        {
          "indexed": true,
          "internalType": "address",
          "name": "previousOwner",
          "type": "address"
        },
        {
          "indexed": true,
          "internalType": "address",
          "name": "newOwner",
          "type": "address"
        }
      ],
      "name": "OwnershipTransferred",
      "type": "event"
    },
    {
      "anonymous": false,
      "inputs": [
        {
          "indexed": true,
          "internalType": "address",
          "name": "operator",
          "type": "address"
        },
        {
          "indexed": true,
          "internalType": "address",
          "name": "from",
          "type": "address"
        },
        {
          "indexed": true,
          "internalType": "address",
          "name": "to",
          "type": "address"
        },
        {
          "indexed": false,
          "internalType": "uint256[]",
          "name": "ids",
          "type": "uint256[]"
        },
        {
          "indexed": false,
          "internalType": "uint256[]",
          "name": "values",
          "type": "uint256[]"
        }
      ],
      "name": "TransferBatch",
      "type": "event"
    },
    {
      "anonymous": false,
      "inputs": [
        {
          "indexed": true,
          "internalType": "address",
          "name": "operator",
          "type": "address"
        },
        {
          "indexed": true,
          "internalType": "address",
          "name": "from",
          "type": "address"
        },
        {
          "indexed": true,
          "internalType": "address",
          "name": "to",
          "type": "address"
        },
        {
          "indexed": false,
          "internalType": "uint256",
          "name": "id",
          "type": "uint256"
        },
        {
          "indexed": false,
          "internalType": "uint256",
          "name": "value",
          "type": "uint256"
        }
      ],
      "name": "TransferSingle",
      "type": "event"
    },
    {
      "anonymous": false,
      "inputs": [
        {
          "indexed": false,
          "internalType": "string",
          "name": "value",
          "type": "string"
        },
        {
          "indexed": true,
          "internalType": "uint256",
          "name": "id",
          "type": "uint256"
        }
      ],
      "name": "URI",
      "type": "event"
    },
    {
      "inputs": [
        {
          "internalType": "address",
          "name": "account",
          "type": "address"
        },
        {
          "internalType": "uint256",
          "name": "id",
          "type": "uint256"
        }
      ],
      "name": "balanceOf",
      "outputs": [
        {
          "internalType": "uint256",
          "name": "",
          "type": "uint256"
        }
      ],
      "stateMutability": "view",
      "type": "function"
    },
    {
      "inputs": [
        {
          "internalType": "address[]",
          "name": "accounts",
          "type": "address[]"
        },
        {
          "internalType": "uint256[]",
          "name": "ids",
          "type": "uint256[]"
        }
      ],
      "name": "balanceOfBatch",
      "outputs": [
        {
          "internalType": "uint256[]",
          "name": "",
          "type": "uint256[]"
        }
      ],
      "stateMutability": "view",
      "type": "function"
    },
    {
      "inputs": [
        {
          "internalType": "address",
          "name": "account",
          "type": "address"
        },
        {
          "internalType": "address",
          "name": "operator",
          "type": "address"
        }
      ],
      "name": "isApprovedForAll",
      "outputs": [
        {
          "internalType": "bool",
          "name": "",
          "type": "bool"
        }
      ],
      "stateMutability": "view",
      "type": "function"
    },
    {
      "inputs": [
        {
          "internalType": "address",
          "name": "account",
          "type": "address"
        },
        {
          "internalType": "uint256",
          "name": "id",
          "type": "uint256"
        },
        {
          "internalType": "uint256",
          "name": "amount",
          "type": "uint256"
        }
      ],
      "name": "mint",
      "outputs": [],
      "stateMutability": "nonpayable",
      "type": "function"
    },
    {
      "inputs": [],
      "name": "owner",
      "outputs": [
        {
          "internalType": "address",
          "name": "",
          "type": "address"
        }
      ],
      "stateMutability": "view",
      "type": "function"
    },
    {
      "inputs": [],
      "name": "renounceOwnership",
      "outputs": [],
      "stateMutability": "nonpayable",
      "type": "function"
    },
    {
      "inputs": [
        {
          "internalType": "address",
          "name": "from",
          "type": "address"
        },
        {
          "internalType": "address",
          "name": "to",
          "type": "address"
        },
        {
          "internalType": "uint256[]",
          "name": "ids",
          "type": "uint256[]"
        },
        {
          "internalType": "uint256[]",
          "name": "amounts",
          "type": "uint256[]"
        },
        {
          "internalType": "bytes",
          "name": "data",
          "type": "bytes"
        }
      ],
      "name": "safeBatchTransferFrom",
      "outputs": [],
      "stateMutability": "nonpayable",
      "type": "function"
    },
    {
      "inputs": [
        {
          "internalType": "address",
          "name": "from",
          "type": "address"
        },
        {
          "internalType": "address",
          "name": "to",
          "type": "address"
        },
        {
          "internalType": "uint256",
          "name": "id",
          "type": "uint256"
        },
        {
          "internalType": "uint256",
          "name": "amount",
          "type": "uint256"
        },
        {
          "internalType": "bytes",
          "name": "data",
          "type": "bytes"
        }
      ],
      "name": "safeTransferFrom",
      "outputs": [],
      "stateMutability": "nonpayable",
      "type": "function"
    },
    {
      "inputs": [
        {
          "internalType": "address",
          "name": "operator",
          "type": "address"
        },
        {
          "internalType": "bool",
          "name": "approved",
          "type": "bool"
        }
      ],
      "name": "setApprovalForAll",
      "outputs": [],
      "stateMutability": "nonpayable",
      "type": "function"
    },
    {
      "inputs": [
        {
          "internalType": "string",
          "name": "uri_",
          "type": "string"
        }
      ],
      "name": "setURI",
      "outputs": [],
      "stateMutability": "nonpayable",
      "type": "function"
    },
    {
      "inputs": [
        {
          "internalType": "bytes4",
          "name": "interfaceId",
          "type": "bytes4"
        }
      ],
      "name": "supportsInterface",
      "outputs": [
        {
          "internalType": "bool",
          "name": "",
          "type": "bool"
        }
      ],
      "stateMutability": "view",
      "type": "function"
    },
    {
      "inputs": [
        {
          "internalType": "address",
          "name": "newOwner",
          "type": "address"
        }
      ],
      "name": "transferOwnership",
      "outputs": [],
      "stateMutability": "nonpayable",
      "type": "function"
    },
    {
      "inputs": [
        {
          "internalType": "uint256",
          "name": "",
          "type": "uint256"
        }
      ],
      "name": "uri",
      "outputs": [
        {
          "internalType": "string",
          "name": "",
          "type": "string"
        }
      ],
      "stateMutability": "view",
      "type": "function"
    }
  ],
  "transactionHash": "0x8a52b780585368cc92ca82e0b4f1be8e741edff87590aea80371236f285bb87d",
  "args": [
    "https://nft.iotex.io/tokens/iotex_dev/{id}.json"
  ],
  "solcInputHash": "f8f77c5413f6c0a0257817d3d6da1de2",
  "bytecode": "0x60806040523480156200001157600080fd5b5060405162001d0638038062001d06833981016040819052620000349162000164565b80620000408162000053565b506200004c336200006c565b5062000293565b805162000068906002906020840190620000be565b5050565b600380546001600160a01b038381166001600160a01b0319831681179093556040519116919082907f8be0079c531659141344cd1fd0a4f28419497f9722a3daafe3b4186f6b6457e090600090a35050565b828054620000cc9062000240565b90600052602060002090601f016020900481019282620000f057600085556200013b565b82601f106200010b57805160ff19168380011785556200013b565b828001600101855582156200013b579182015b828111156200013b5782518255916020019190600101906200011e565b50620001499291506200014d565b5090565b5b808211156200014957600081556001016200014e565b600060208083850312156200017857600080fd5b82516001600160401b03808211156200019057600080fd5b818501915085601f830112620001a557600080fd5b815181811115620001ba57620001ba6200027d565b604051601f8201601f19908116603f01168101908382118183101715620001e557620001e56200027d565b816040528281528886848701011115620001fe57600080fd5b600093505b8284101562000222578484018601518185018701529285019262000203565b82841115620002345760008684830101525b98975050505050505050565b600181811c908216806200025557607f821691505b602082108114156200027757634e487b7160e01b600052602260045260246000fd5b50919050565b634e487b7160e01b600052604160045260246000fd5b611a6380620002a36000396000f3fe608060405234801561001057600080fd5b50600436106100de5760003560e01c80634e1273f41161008c578063a22cb46511610066578063a22cb465146101ca578063e985e9c5146101dd578063f242432a14610219578063f2fde38b1461022c57600080fd5b80634e1273f414610187578063715018a6146101a75780638da5cb5b146101af57600080fd5b80630e89341c116100bd5780630e89341c14610141578063156e29f6146101615780632eb2c2d61461017457600080fd5b8062fdd58e146100e357806301ffc9a71461010957806302fe53051461012c575b600080fd5b6100f66100f136600461154a565b61023f565b6040519081526020015b60405180910390f35b61011c610117366004611678565b6102e8565b6040519015158152602001610100565b61013f61013a3660046116b2565b61033a565b005b61015461014f366004611703565b6103a0565b6040516101009190611886565b61013f61016f366004611574565b610434565b61013f6101823660046113ff565b6104ae565b61019a6101953660046115a7565b610550565b6040516101009190611845565b61013f61068e565b6003546040516001600160a01b039091168152602001610100565b61013f6101d836600461150e565b6106f4565b61011c6101eb3660046113cc565b6001600160a01b03918216600090815260016020908152604080832093909416825291909152205460ff1690565b61013f6102273660046114a9565b6107df565b61013f61023a3660046113b1565b61087a565b60006001600160a01b0383166102c25760405162461bcd60e51b815260206004820152602b60248201527f455243313135353a2062616c616e636520717565727920666f7220746865207a60448201527f65726f206164647265737300000000000000000000000000000000000000000060648201526084015b60405180910390fd5b506000908152602081815260408083206001600160a01b03949094168352929052205490565b60006001600160e01b03198216636cdb3d1360e11b148061031957506001600160e01b031982166303a24d0760e21b145b8061033457506301ffc9a760e01b6001600160e01b03198316145b92915050565b6003546001600160a01b031633146103945760405162461bcd60e51b815260206004820181905260248201527f4f776e61626c653a2063616c6c6572206973206e6f7420746865206f776e657260448201526064016102b9565b61039d81610959565b50565b6060600280546103af906118d5565b80601f01602080910402602001604051908101604052809291908181526020018280546103db906118d5565b80156104285780601f106103fd57610100808354040283529160200191610428565b820191906000526020600020905b81548152906001019060200180831161040b57829003601f168201915b50505050509050919050565b6003546001600160a01b0316331461048e5760405162461bcd60e51b815260206004820181905260248201527f4f776e61626c653a2063616c6c6572206973206e6f7420746865206f776e657260448201526064016102b9565b6104a983838360405180602001604052806000815250610970565b505050565b6001600160a01b0385163314806104ca57506104ca85336101eb565b61053c5760405162461bcd60e51b815260206004820152603260248201527f455243313135353a207472616e736665722063616c6c6572206973206e6f742060448201527f6f776e6572206e6f7220617070726f766564000000000000000000000000000060648201526084016102b9565b6105498585858585610a7a565b5050505050565b606081518351146105c95760405162461bcd60e51b815260206004820152602960248201527f455243313135353a206163636f756e747320616e6420696473206c656e67746860448201527f206d69736d61746368000000000000000000000000000000000000000000000060648201526084016102b9565b6000835167ffffffffffffffff8111156105e5576105e5611984565b60405190808252806020026020018201604052801561060e578160200160208202803683370190505b50905060005b8451811015610686576106598582815181106106325761063261196e565b602002602001015185838151811061064c5761064c61196e565b602002602001015161023f565b82828151811061066b5761066b61196e565b602090810291909101015261067f8161193d565b9050610614565b509392505050565b6003546001600160a01b031633146106e85760405162461bcd60e51b815260206004820181905260248201527f4f776e61626c653a2063616c6c6572206973206e6f7420746865206f776e657260448201526064016102b9565b6106f26000610ced565b565b336001600160a01b03831614156107735760405162461bcd60e51b815260206004820152602960248201527f455243313135353a2073657474696e6720617070726f76616c2073746174757360448201527f20666f722073656c66000000000000000000000000000000000000000000000060648201526084016102b9565b3360008181526001602090815260408083206001600160a01b03871680855290835292819020805460ff191686151590811790915590519081529192917f17307eab39ab6107e8899845ad3d59bd9653f200f220920489ca2b5937696c31910160405180910390a35050565b6001600160a01b0385163314806107fb57506107fb85336101eb565b61086d5760405162461bcd60e51b815260206004820152602960248201527f455243313135353a2063616c6c6572206973206e6f74206f776e6572206e6f7260448201527f20617070726f766564000000000000000000000000000000000000000000000060648201526084016102b9565b6105498585858585610d57565b6003546001600160a01b031633146108d45760405162461bcd60e51b815260206004820181905260248201527f4f776e61626c653a2063616c6c6572206973206e6f7420746865206f776e657260448201526064016102b9565b6001600160a01b0381166109505760405162461bcd60e51b815260206004820152602660248201527f4f776e61626c653a206e6577206f776e657220697320746865207a65726f206160448201527f646472657373000000000000000000000000000000000000000000000000000060648201526084016102b9565b61039d81610ced565b805161096c906002906020840190611200565b5050565b6001600160a01b0384166109d05760405162461bcd60e51b815260206004820152602160248201527f455243313135353a206d696e7420746f20746865207a65726f206164647265736044820152607360f81b60648201526084016102b9565b336109ea816000876109e188610ef5565b61054988610ef5565b6000848152602081815260408083206001600160a01b038916845290915281208054859290610a1a9084906118bd565b909155505060408051858152602081018590526001600160a01b0380881692600092918516917fc3d58168c5ae7397731d063d5bbf3d657854427343f4c083240f7aacaa2d0f62910160405180910390a461054981600087878787610f40565b8151835114610af15760405162461bcd60e51b815260206004820152602860248201527f455243313135353a2069647320616e6420616d6f756e7473206c656e6774682060448201527f6d69736d6174636800000000000000000000000000000000000000000000000060648201526084016102b9565b6001600160a01b038416610b555760405162461bcd60e51b815260206004820152602560248201527f455243313135353a207472616e7366657220746f20746865207a65726f206164604482015264647265737360d81b60648201526084016102b9565b3360005b8451811015610c7f576000858281518110610b7657610b7661196e565b602002602001015190506000858381518110610b9457610b9461196e565b602090810291909101810151600084815280835260408082206001600160a01b038e168352909352919091205490915081811015610c275760405162461bcd60e51b815260206004820152602a60248201527f455243313135353a20696e73756666696369656e742062616c616e636520666f60448201526939103a3930b739b332b960b11b60648201526084016102b9565b6000838152602081815260408083206001600160a01b038e8116855292528083208585039055908b16825281208054849290610c649084906118bd565b9250508190555050505080610c789061193d565b9050610b59565b50846001600160a01b0316866001600160a01b0316826001600160a01b03167f4a39dc06d4c0dbc64b70af90fd698a233a518aa5d07e595d983b8c0526c8f7fb8787604051610ccf929190611858565b60405180910390a4610ce58187878787876110f5565b505050505050565b600380546001600160a01b038381167fffffffffffffffffffffffff0000000000000000000000000000000000000000831681179093556040519116919082907f8be0079c531659141344cd1fd0a4f28419497f9722a3daafe3b4186f6b6457e090600090a35050565b6001600160a01b038416610dbb5760405162461bcd60e51b815260206004820152602560248201527f455243313135353a207472616e7366657220746f20746865207a65726f206164604482015264647265737360d81b60648201526084016102b9565b33610dcb8187876109e188610ef5565b6000848152602081815260408083206001600160a01b038a16845290915290205483811015610e4f5760405162461bcd60e51b815260206004820152602a60248201527f455243313135353a20696e73756666696369656e742062616c616e636520666f60448201526939103a3930b739b332b960b11b60648201526084016102b9565b6000858152602081815260408083206001600160a01b038b8116855292528083208785039055908816825281208054869290610e8c9084906118bd565b909155505060408051868152602081018690526001600160a01b03808916928a821692918616917fc3d58168c5ae7397731d063d5bbf3d657854427343f4c083240f7aacaa2d0f62910160405180910390a4610eec828888888888610f40565b50505050505050565b60408051600180825281830190925260609160009190602080830190803683370190505090508281600081518110610f2f57610f2f61196e565b602090810291909101015292915050565b6001600160a01b0384163b15610ce55760405163f23a6e6160e01b81526001600160a01b0385169063f23a6e6190610f849089908990889088908890600401611802565b602060405180830381600087803b158015610f9e57600080fd5b505af1925050508015610fce575060408051601f3d908101601f19168201909252610fcb91810190611695565b60015b61108457610fda61199a565b806308c379a014156110145750610fef6119b6565b80610ffa5750611016565b8060405162461bcd60e51b81526004016102b99190611886565b505b60405162461bcd60e51b815260206004820152603460248201527f455243313135353a207472616e7366657220746f206e6f6e204552433131353560448201527f526563656976657220696d706c656d656e74657200000000000000000000000060648201526084016102b9565b6001600160e01b0319811663f23a6e6160e01b14610eec5760405162461bcd60e51b815260206004820152602860248201527f455243313135353a204552433131353552656365697665722072656a656374656044820152676420746f6b656e7360c01b60648201526084016102b9565b6001600160a01b0384163b15610ce55760405163bc197c8160e01b81526001600160a01b0385169063bc197c819061113990899089908890889088906004016117a4565b602060405180830381600087803b15801561115357600080fd5b505af1925050508015611183575060408051601f3d908101601f1916820190925261118091810190611695565b60015b61118f57610fda61199a565b6001600160e01b0319811663bc197c8160e01b14610eec5760405162461bcd60e51b815260206004820152602860248201527f455243313135353a204552433131353552656365697665722072656a656374656044820152676420746f6b656e7360c01b60648201526084016102b9565b82805461120c906118d5565b90600052602060002090601f01602090048101928261122e5760008555611274565b82601f1061124757805160ff1916838001178555611274565b82800160010185558215611274579182015b82811115611274578251825591602001919060010190611259565b50611280929150611284565b5090565b5b808211156112805760008155600101611285565b600067ffffffffffffffff8311156112b3576112b3611984565b6040516112ca601f8501601f191660200182611910565b8091508381528484840111156112df57600080fd5b83836020830137600060208583010152509392505050565b80356001600160a01b038116811461130e57600080fd5b919050565b600082601f83011261132457600080fd5b8135602061133182611899565b60405161133e8282611910565b8381528281019150858301600585901b8701840188101561135e57600080fd5b60005b8581101561137d57813584529284019290840190600101611361565b5090979650505050505050565b600082601f83011261139b57600080fd5b6113aa83833560208501611299565b9392505050565b6000602082840312156113c357600080fd5b6113aa826112f7565b600080604083850312156113df57600080fd5b6113e8836112f7565b91506113f6602084016112f7565b90509250929050565b600080600080600060a0868803121561141757600080fd5b611420866112f7565b945061142e602087016112f7565b9350604086013567ffffffffffffffff8082111561144b57600080fd5b61145789838a01611313565b9450606088013591508082111561146d57600080fd5b61147989838a01611313565b9350608088013591508082111561148f57600080fd5b5061149c8882890161138a565b9150509295509295909350565b600080600080600060a086880312156114c157600080fd5b6114ca866112f7565b94506114d8602087016112f7565b93506040860135925060608601359150608086013567ffffffffffffffff81111561150257600080fd5b61149c8882890161138a565b6000806040838503121561152157600080fd5b61152a836112f7565b91506020830135801515811461153f57600080fd5b809150509250929050565b6000806040838503121561155d57600080fd5b611566836112f7565b946020939093013593505050565b60008060006060848603121561158957600080fd5b611592846112f7565b95602085013595506040909401359392505050565b600080604083850312156115ba57600080fd5b823567ffffffffffffffff808211156115d257600080fd5b818501915085601f8301126115e657600080fd5b813560206115f382611899565b6040516116008282611910565b8381528281019150858301600585901b870184018b101561162057600080fd5b600096505b8487101561164a57611636816112f7565b835260019690960195918301918301611625565b509650508601359250508082111561166157600080fd5b5061166e85828601611313565b9150509250929050565b60006020828403121561168a57600080fd5b81356113aa81611a40565b6000602082840312156116a757600080fd5b81516113aa81611a40565b6000602082840312156116c457600080fd5b813567ffffffffffffffff8111156116db57600080fd5b8201601f810184136116ec57600080fd5b6116fb84823560208401611299565b949350505050565b60006020828403121561171557600080fd5b5035919050565b600081518084526020808501945080840160005b8381101561174c57815187529582019590820190600101611730565b509495945050505050565b6000815180845260005b8181101561177d57602081850181015186830182015201611761565b8181111561178f576000602083870101525b50601f01601f19169290920160200192915050565b60006001600160a01b03808816835280871660208401525060a060408301526117d060a083018661171c565b82810360608401526117e2818661171c565b905082810360808401526117f68185611757565b98975050505050505050565b60006001600160a01b03808816835280871660208401525084604083015283606083015260a0608083015261183a60a0830184611757565b979650505050505050565b6020815260006113aa602083018461171c565b60408152600061186b604083018561171c565b828103602084015261187d818561171c565b95945050505050565b6020815260006113aa6020830184611757565b600067ffffffffffffffff8211156118b3576118b3611984565b5060051b60200190565b600082198211156118d0576118d0611958565b500190565b600181811c908216806118e957607f821691505b6020821081141561190a57634e487b7160e01b600052602260045260246000fd5b50919050565b601f8201601f1916810167ffffffffffffffff8111828210171561193657611936611984565b6040525050565b600060001982141561195157611951611958565b5060010190565b634e487b7160e01b600052601160045260246000fd5b634e487b7160e01b600052603260045260246000fd5b634e487b7160e01b600052604160045260246000fd5b600060033d11156119b35760046000803e5060005160e01c5b90565b600060443d10156119c45790565b6040516003193d81016004833e81513d67ffffffffffffffff81602484011181841117156119f457505050505090565b8285019150815181811115611a0c5750505050505090565b843d8701016020828501011115611a265750505050505090565b611a3560208286010187611910565b509095945050505050565b6001600160e01b03198116811461039d57600080fdfea164736f6c6343000807000a",
  "devdoc": {
    "kind": "dev",
    "methods": {
      "balanceOf(address,uint256)": {
        "details": "See {IERC1155-balanceOf}. Requirements: - `account` cannot be the zero address."
      },
      "balanceOfBatch(address[],uint256[])": {
        "details": "See {IERC1155-balanceOfBatch}. Requirements: - `accounts` and `ids` must have the same length."
      },
      "isApprovedForAll(address,address)": {
        "details": "See {IERC1155-isApprovedForAll}."
      },
      "owner()": {
        "details": "Returns the address of the current owner."
      },
      "renounceOwnership()": {
        "details": "Leaves the contract without owner. It will not be possible to call `onlyOwner` functions anymore. Can only be called by the current owner. NOTE: Renouncing ownership will leave the contract without an owner, thereby removing any functionality that is only available to the owner."
      },
      "safeBatchTransferFrom(address,address,uint256[],uint256[],bytes)": {
        "details": "See {IERC1155-safeBatchTransferFrom}."
      },
      "safeTransferFrom(address,address,uint256,uint256,bytes)": {
        "details": "See {IERC1155-safeTransferFrom}."
      },
      "setApprovalForAll(address,bool)": {
        "details": "See {IERC1155-setApprovalForAll}."
      },
      "supportsInterface(bytes4)": {
        "details": "See {IERC165-supportsInterface}."
      },
      "transferOwnership(address)": {
        "details": "Transfers ownership of the contract to a new account (`newOwner`). Can only be called by the current owner."
      },
      "uri(uint256)": {
        "details": "See {IERC1155MetadataURI-uri}. This implementation returns the same URI for *all* token types. It relies on the token type ID substitution mechanism https://eips.ethereum.org/EIPS/eip-1155#metadata[defined in the EIP]. Clients calling this function must replace the `\\{id\\}` substring with the actual token type ID."
      }
    },
    "version": 1
  },
  "userdoc": {
    "kind": "user",
    "methods": {},
    "version": 1
  },
  "storageLayout": {
    "storage": [
      {
        "astId": 209,
        "contract": "contracts/IoTeXDev.sol:IoTeXDev",
        "label": "_balances",
        "offset": 0,
        "slot": "0",
        "type": "t_mapping(t_uint256,t_mapping(t_address,t_uint256))"
      },
      {
        "astId": 215,
        "contract": "contracts/IoTeXDev.sol:IoTeXDev",
        "label": "_operatorApprovals",
        "offset": 0,
        "slot": "1",
        "type": "t_mapping(t_address,t_mapping(t_address,t_bool))"
      },
      {
        "astId": 217,
        "contract": "contracts/IoTeXDev.sol:IoTeXDev",
        "label": "_uri",
        "offset": 0,
        "slot": "2",
        "type": "t_string_storage"
      },
      {
        "astId": 7,
        "contract": "contracts/IoTeXDev.sol:IoTeXDev",
        "label": "_owner",
        "offset": 0,
        "slot": "3",
        "type": "t_address"
      }
    ],
    "types": {
      "t_address": {
        "encoding": "inplace",
        "label": "address",
        "numberOfBytes": "20"
      },
      "t_bool": {
        "encoding": "inplace",
        "label": "bool",
        "numberOfBytes": "1"
      },
      "t_mapping(t_address,t_bool)": {
        "encoding": "mapping",
        "key": "t_address",
        "label": "mapping(address => bool)",
        "numberOfBytes": "32",
        "value": "t_bool"
      },
      "t_mapping(t_address,t_mapping(t_address,t_bool))": {
        "encoding": "mapping",
        "key": "t_address",
        "label": "mapping(address => mapping(address => bool))",
        "numberOfBytes": "32",
        "value": "t_mapping(t_address,t_bool)"
      },
      "t_mapping(t_address,t_uint256)": {
        "encoding": "mapping",
        "key": "t_address",
        "label": "mapping(address => uint256)",
        "numberOfBytes": "32",
        "value": "t_uint256"
      },
      "t_mapping(t_uint256,t_mapping(t_address,t_uint256))": {
        "encoding": "mapping",
        "key": "t_uint256",
        "label": "mapping(uint256 => mapping(address => uint256))",
        "numberOfBytes": "32",
        "value": "t_mapping(t_address,t_uint256)"
      },
      "t_string_storage": {
        "encoding": "bytes",
        "label": "string",
        "numberOfBytes": "32"
      },
      "t_uint256": {
        "encoding": "inplace",
        "label": "uint256",
        "numberOfBytes": "32"
      }
    }
  }
}