{
  "address": "0xE6DF6F666bE3D9D4060D14De4C4E778E1aDdB912",
  "abi": [
    {
      "inputs": [
        {
          "internalType": "string",
          "name": "name",
          "type": "string"
        },
        {
          "internalType": "string",
          "name": "symbol",
          "type": "string"
        },
        {
          "internalType": "string",
          "name": "uri",
          "type": "string"
        }
      ],
      "stateMutability": "nonpayable",
      "type": "constructor"
    },
    {
      "anonymous": false,
      "inputs": [
        {
          "indexed": true,
          "internalType": "address",
          "name": "owner",
          "type": "address"
        },
        {
          "indexed": true,
          "internalType": "address",
          "name": "approved",
          "type": "address"
        },
        {
          "indexed": true,
          "internalType": "uint256",
          "name": "tokenId",
          "type": "uint256"
        }
      ],
      "name": "Approval",
      "type": "event"
    },
    {
      "anonymous": false,
      "inputs": [
        {
          "indexed": true,
          "internalType": "address",
          "name": "owner",
          "type": "address"
        },
        {
          "indexed": true,
          "internalType": "address",
          "name": "operator",
          "type": "address"
        },
        {
          "indexed": false,
          "internalType": "bool",
          "name": "approved",
          "type": "bool"
        }
      ],
      "name": "ApprovalForAll",
      "type": "event"
    },
    {
      "anonymous": false,
      "inputs": [
        {
          "indexed": true,
          "internalType": "address",
          "name": "minter",
          "type": "address"
        }
      ],
      "name": "MinterAdded",
      "type": "event"
    },
    {
      "anonymous": false,
      "inputs": [
        {
          "indexed": true,
          "internalType": "address",
          "name": "minter",
          "type": "address"
        }
      ],
      "name": "MinterRemoved",
      "type": "event"
    },
    {
      "anonymous": false,
      "inputs": [
        {
          "indexed": true,
          "internalType": "address",
          "name": "previousOwner",
          "type": "address"
        },
        {
          "indexed": true,
          "internalType": "address",
          "name": "newOwner",
          "type": "address"
        }
      ],
      "name": "OwnershipTransferred",
      "type": "event"
    },
    {
      "anonymous": false,
      "inputs": [
        {
          "indexed": true,
          "internalType": "address",
          "name": "from",
          "type": "address"
        },
        {
          "indexed": true,
          "internalType": "address",
          "name": "to",
          "type": "address"
        },
        {
          "indexed": true,
          "internalType": "uint256",
          "name": "tokenId",
          "type": "uint256"
        }
      ],
      "name": "Transfer",
      "type": "event"
    },
    {
      "inputs": [
        {
          "internalType": "address",
          "name": "minter",
          "type": "address"
        }
      ],
      "name": "addMinter",
      "outputs": [],
      "stateMutability": "nonpayable",
      "type": "function"
    },
    {
      "inputs": [
        {
          "internalType": "address",
          "name": "to",
          "type": "address"
        },
        {
          "internalType": "uint256",
          "name": "tokenId",
          "type": "uint256"
        }
      ],
      "name": "approve",
      "outputs": [],
      "stateMutability": "nonpayable",
      "type": "function"
    },
    {
      "inputs": [
        {
          "internalType": "address",
          "name": "owner",
          "type": "address"
        }
      ],
      "name": "balanceOf",
      "outputs": [
        {
          "internalType": "uint256",
          "name": "",
          "type": "uint256"
        }
      ],
      "stateMutability": "view",
      "type": "function"
    },
    {
      "inputs": [
        {
          "internalType": "address[]",
          "name": "receivers",
          "type": "address[]"
        },
        {
          "internalType": "uint256[]",
          "name": "tokenIDs",
          "type": "uint256[]"
        }
      ],
      "name": "batchMint",
      "outputs": [],
      "stateMutability": "nonpayable",
      "type": "function"
    },
    {
      "inputs": [
        {
          "internalType": "uint256",
          "name": "tokenId",
          "type": "uint256"
        }
      ],
      "name": "getApproved",
      "outputs": [
        {
          "internalType": "address",
          "name": "",
          "type": "address"
        }
      ],
      "stateMutability": "view",
      "type": "function"
    },
    {
      "inputs": [
        {
          "internalType": "address",
          "name": "owner",
          "type": "address"
        },
        {
          "internalType": "address",
          "name": "operator",
          "type": "address"
        }
      ],
      "name": "isApprovedForAll",
      "outputs": [
        {
          "internalType": "bool",
          "name": "",
          "type": "bool"
        }
      ],
      "stateMutability": "view",
      "type": "function"
    },
    {
      "inputs": [],
      "name": "name",
      "outputs": [
        {
          "internalType": "string",
          "name": "",
          "type": "string"
        }
      ],
      "stateMutability": "view",
      "type": "function"
    },
    {
      "inputs": [],
      "name": "owner",
      "outputs": [
        {
          "internalType": "address",
          "name": "",
          "type": "address"
        }
      ],
      "stateMutability": "view",
      "type": "function"
    },
    {
      "inputs": [
        {
          "internalType": "uint256",
          "name": "tokenId",
          "type": "uint256"
        }
      ],
      "name": "ownerOf",
      "outputs": [
        {
          "internalType": "address",
          "name": "",
          "type": "address"
        }
      ],
      "stateMutability": "view",
      "type": "function"
    },
    {
      "inputs": [
        {
          "internalType": "address",
          "name": "minter",
          "type": "address"
        }
      ],
      "name": "removeMinter",
      "outputs": [],
      "stateMutability": "nonpayable",
      "type": "function"
    },
    {
      "inputs": [],
      "name": "renounceOwnership",
      "outputs": [],
      "stateMutability": "nonpayable",
      "type": "function"
    },
    {
      "inputs": [
        {
          "internalType": "address",
          "name": "from",
          "type": "address"
        },
        {
          "internalType": "address",
          "name": "to",
          "type": "address"
        },
        {
          "internalType": "uint256",
          "name": "tokenId",
          "type": "uint256"
        }
      ],
      "name": "safeTransferFrom",
      "outputs": [],
      "stateMutability": "nonpayable",
      "type": "function"
    },
    {
      "inputs": [
        {
          "internalType": "address",
          "name": "from",
          "type": "address"
        },
        {
          "internalType": "address",
          "name": "to",
          "type": "address"
        },
        {
          "internalType": "uint256",
          "name": "tokenId",
          "type": "uint256"
        },
        {
          "internalType": "bytes",
          "name": "_data",
          "type": "bytes"
        }
      ],
      "name": "safeTransferFrom",
      "outputs": [],
      "stateMutability": "nonpayable",
      "type": "function"
    },
    {
      "inputs": [
        {
          "internalType": "address",
          "name": "operator",
          "type": "address"
        },
        {
          "internalType": "bool",
          "name": "approved",
          "type": "bool"
        }
      ],
      "name": "setApprovalForAll",
      "outputs": [],
      "stateMutability": "nonpayable",
      "type": "function"
    },
    {
      "inputs": [
        {
          "internalType": "bytes4",
          "name": "interfaceId",
          "type": "bytes4"
        }
      ],
      "name": "supportsInterface",
      "outputs": [
        {
          "internalType": "bool",
          "name": "",
          "type": "bool"
        }
      ],
      "stateMutability": "view",
      "type": "function"
    },
    {
      "inputs": [],
      "name": "symbol",
      "outputs": [
        {
          "internalType": "string",
          "name": "",
          "type": "string"
        }
      ],
      "stateMutability": "view",
      "type": "function"
    },
    {
      "inputs": [
        {
          "internalType": "uint256",
          "name": "index",
          "type": "uint256"
        }
      ],
      "name": "tokenByIndex",
      "outputs": [
        {
          "internalType": "uint256",
          "name": "",
          "type": "uint256"
        }
      ],
      "stateMutability": "view",
      "type": "function"
    },
    {
      "inputs": [
        {
          "internalType": "address",
          "name": "owner",
          "type": "address"
        },
        {
          "internalType": "uint256",
          "name": "index",
          "type": "uint256"
        }
      ],
      "name": "tokenOfOwnerByIndex",
      "outputs": [
        {
          "internalType": "uint256",
          "name": "",
          "type": "uint256"
        }
      ],
      "stateMutability": "view",
      "type": "function"
    },
    {
      "inputs": [
        {
          "internalType": "uint256",
          "name": "tokenId",
          "type": "uint256"
        }
      ],
      "name": "tokenURI",
      "outputs": [
        {
          "internalType": "string",
          "name": "",
          "type": "string"
        }
      ],
      "stateMutability": "view",
      "type": "function"
    },
    {
      "inputs": [],
      "name": "totalSupply",
      "outputs": [
        {
          "internalType": "uint256",
          "name": "",
          "type": "uint256"
        }
      ],
      "stateMutability": "view",
      "type": "function"
    },
    {
      "inputs": [
        {
          "internalType": "address",
          "name": "from",
          "type": "address"
        },
        {
          "internalType": "address",
          "name": "to",
          "type": "address"
        },
        {
          "internalType": "uint256",
          "name": "tokenId",
          "type": "uint256"
        }
      ],
      "name": "transferFrom",
      "outputs": [],
      "stateMutability": "nonpayable",
      "type": "function"
    },
    {
      "inputs": [
        {
          "internalType": "address",
          "name": "newOwner",
          "type": "address"
        }
      ],
      "name": "transferOwnership",
      "outputs": [],
      "stateMutability": "nonpayable",
      "type": "function"
    }
  ],
  "transactionHash": "0xe9212ebba1992c148077697fc32befcf79f9eba4580c436dead9587f2a19a5ba",
  "args": [
    "Pebble Pioneer",
    "PPT",
    "https://nft.iotex.io/tokens/pebble_pioneer/metadata.json"
  ],
  "solcInputHash": "7a771eccea387a28273b8654fdf5e650",
  "bytecode": "0x60806040523480156200001157600080fd5b506040516200242338038062002423833981016040819052620000349162000261565b8251839083906200004d90600090602085019062000110565b5080516200006390600190602084019062000110565b505050620000806200007a620000ba60201b60201c565b620000be565b80516200009590600c90602084019062000110565b5050336000908152600b60205260409020805460ff1916600117905550620003419050565b3390565b600a80546001600160a01b038381166001600160a01b0319831681179093556040519116919082907f8be0079c531659141344cd1fd0a4f28419497f9722a3daafe3b4186f6b6457e090600090a35050565b8280546200011e90620002ee565b90600052602060002090601f0160209004810192826200014257600085556200018d565b82601f106200015d57805160ff19168380011785556200018d565b828001600101855582156200018d579182015b828111156200018d57825182559160200191906001019062000170565b506200019b9291506200019f565b5090565b5b808211156200019b5760008155600101620001a0565b600082601f830112620001c7578081fd5b81516001600160401b0380821115620001e457620001e46200032b565b6040516020601f8401601f19168201810183811183821017156200020c576200020c6200032b565b604052838252858401810187101562000223578485fd5b8492505b8383101562000246578583018101518284018201529182019162000227565b838311156200025757848185840101525b5095945050505050565b60008060006060848603121562000276578283fd5b83516001600160401b03808211156200028d578485fd5b6200029b87838801620001b6565b94506020860151915080821115620002b1578384fd5b620002bf87838801620001b6565b93506040860151915080821115620002d5578283fd5b50620002e486828701620001b6565b9150509250925092565b6002810460018216806200030357607f821691505b602082108114156200032557634e487b7160e01b600052602260045260246000fd5b50919050565b634e487b7160e01b600052604160045260246000fd5b6120d280620003516000396000f3fe608060405234801561001057600080fd5b50600436106101825760003560e01c806368573107116100d8578063983b2d561161008c578063c87b56dd11610066578063c87b56dd146102f8578063e985e9c51461030b578063f2fde38b1461031e57610182565b8063983b2d56146102bf578063a22cb465146102d2578063b88d4fde146102e557610182565b8063715018a6116100bd578063715018a6146102a75780638da5cb5b146102af57806395d89b41146102b757610182565b8063685731071461028157806370a082311461029457610182565b806323b872dd1161013a57806342842e0e1161011457806342842e0e146102485780634f6ccce71461025b5780636352211e1461026e57610182565b806323b872dd1461020f5780632f745c59146102225780633092afd51461023557610182565b8063081812fc1161016b578063081812fc146101c5578063095ea7b3146101e557806318160ddd146101fa57610182565b806301ffc9a71461018757806306fdde03146101b0575b600080fd5b61019a610195366004611703565b610331565b6040516101a791906118c2565b60405180910390f35b6101b861035e565b6040516101a791906118cd565b6101d86101d336600461173b565b6103f0565b6040516101a79190611872565b6101f86101f336600461161c565b61043c565b005b6102026104d4565b6040516101a79190611f31565b6101f861021d3660046114ef565b6104da565b61020261023036600461161c565b610512565b6101f861024336600461149c565b610564565b6101f86102563660046114ef565b61060e565b61020261026936600461173b565b610629565b6101d861027c36600461173b565b610684565b6101f861028f366004611645565b6106b9565b6102026102a236600461149c565b610795565b6101f86107d9565b6101d8610824565b6101b8610833565b6101f86102cd36600461149c565b610842565b6101f86102e03660046115e2565b6108ed565b6101f86102f336600461152a565b6109bb565b6101b861030636600461173b565b6109fa565b61019a6103193660046114bd565b610a53565b6101f861032c36600461149c565b610a81565b60006001600160e01b0319821663780e9d6360e01b1480610356575061035682610aef565b90505b919050565b60606000805461036d90612003565b80601f016020809104026020016040519081016040528092919081815260200182805461039990612003565b80156103e65780601f106103bb576101008083540402835291602001916103e6565b820191906000526020600020905b8154815290600101906020018083116103c957829003601f168201915b5050505050905090565b60006103fb82610b2f565b6104205760405162461bcd60e51b815260040161041790611cfb565b60405180910390fd5b506000908152600460205260409020546001600160a01b031690565b600061044782610684565b9050806001600160a01b0316836001600160a01b0316141561047b5760405162461bcd60e51b815260040161041790611e36565b806001600160a01b031661048d610b4c565b6001600160a01b031614806104a957506104a981610319610b4c565b6104c55760405162461bcd60e51b815260040161041790611af5565b6104cf8383610b50565b505050565b60085490565b6104eb6104e5610b4c565b82610bbe565b6105075760405162461bcd60e51b815260040161041790611e77565b6104cf838383610c43565b600061051d83610795565b821061053b5760405162461bcd60e51b8152600401610417906118e0565b506001600160a01b03919091166000908152600660209081526040808320938352929052205490565b61056c610b4c565b6001600160a01b031661057d610824565b6001600160a01b0316146105a35760405162461bcd60e51b815260040161041790611d47565b6001600160a01b0381166000908152600b602052604090205460ff161561060b576001600160a01b0381166000818152600b6020526040808220805460ff19169055517fe94479a9f7e1952cc78f2d6baab678adc1b772d936c6583def489e524cb666929190a25b50565b6104cf838383604051806020016040528060008152506109bb565b60006106336104d4565b82106106515760405162461bcd60e51b815260040161041790611ed4565b6008828154811061067257634e487b7160e01b600052603260045260246000fd5b90600052602060002001549050919050565b6000818152600260205260408120546001600160a01b0316806103565760405162461bcd60e51b815260040161041790611baf565b600b60006106c5610b4c565b6001600160a01b0316815260208101919091526040016000205460ff166106fe5760405162461bcd60e51b815260040161041790611c0c565b805182511461071f5760405162461bcd60e51b815260040161041790611c9e565b60005b82518110156104cf5761078383828151811061074e57634e487b7160e01b600052603260045260246000fd5b602002602001015183838151811061077657634e487b7160e01b600052603260045260246000fd5b6020026020010151610d70565b8061078d8161203e565b915050610722565b60006001600160a01b0382166107bd5760405162461bcd60e51b815260040161041790611b52565b506001600160a01b031660009081526003602052604090205490565b6107e1610b4c565b6001600160a01b03166107f2610824565b6001600160a01b0316146108185760405162461bcd60e51b815260040161041790611d47565b6108226000610d8e565b565b600a546001600160a01b031690565b60606001805461036d90612003565b61084a610b4c565b6001600160a01b031661085b610824565b6001600160a01b0316146108815760405162461bcd60e51b815260040161041790611d47565b6001600160a01b0381166000908152600b602052604090205460ff1661060b576001600160a01b0381166000818152600b6020526040808220805460ff19166001179055517f6ae172837ea30b801fbfcdd4108aa1d5bf8ff775444fd70256b44e6bf3dfc3f69190a250565b6108f5610b4c565b6001600160a01b0316826001600160a01b031614156109265760405162461bcd60e51b815260040161041790611a72565b8060056000610933610b4c565b6001600160a01b03908116825260208083019390935260409182016000908120918716808252919093529120805460ff191692151592909217909155610977610b4c565b6001600160a01b03167f17307eab39ab6107e8899845ad3d59bd9653f200f220920489ca2b5937696c31836040516109af91906118c2565b60405180910390a35050565b6109cc6109c6610b4c565b83610bbe565b6109e85760405162461bcd60e51b815260040161041790611e77565b6109f484848484610de0565b50505050565b6060610a0582610b2f565b610a215760405162461bcd60e51b815260040161041790611dd9565b600c610a2c83610e13565b604051602001610a3d9291906117c4565b6040516020818303038152906040529050919050565b6001600160a01b03918216600090815260056020908152604080832093909416825291909152205460ff1690565b610a89610b4c565b6001600160a01b0316610a9a610824565b6001600160a01b031614610ac05760405162461bcd60e51b815260040161041790611d47565b6001600160a01b038116610ae65760405162461bcd60e51b81526004016104179061199a565b61060b81610d8e565b60006001600160e01b031982166380ac58cd60e01b1480610b2057506001600160e01b03198216635b5e139f60e01b145b80610356575061035682610f46565b6000908152600260205260409020546001600160a01b0316151590565b3390565b600081815260046020526040902080546001600160a01b0319166001600160a01b0384169081179091558190610b8582610684565b6001600160a01b03167f8c5be1e5ebec7d5bd14f71427d1e84f3dd0314c0f7b2291e5b200ac8c7c3b92560405160405180910390a45050565b6000610bc982610b2f565b610be55760405162461bcd60e51b815260040161041790611aa9565b6000610bf083610684565b9050806001600160a01b0316846001600160a01b03161480610c2b5750836001600160a01b0316610c20846103f0565b6001600160a01b0316145b80610c3b5750610c3b8185610a53565b949350505050565b826001600160a01b0316610c5682610684565b6001600160a01b031614610c7c5760405162461bcd60e51b815260040161041790611d7c565b6001600160a01b038216610ca25760405162461bcd60e51b815260040161041790611a2e565b610cad838383610f5f565b610cb8600082610b50565b6001600160a01b0383166000908152600360205260408120805460019290610ce1908490611fc0565b90915550506001600160a01b0382166000908152600360205260408120805460019290610d0f908490611f94565b909155505060008181526002602052604080822080546001600160a01b0319166001600160a01b0386811691821790925591518493918716917fddf252ad1be2c89b69c2b068fc378daa952ba7f163c4a11628f55a4df523b3ef91a4505050565b610d8a828260405180602001604052806000815250610fe8565b5050565b600a80546001600160a01b038381166001600160a01b0319831681179093556040519116919082907f8be0079c531659141344cd1fd0a4f28419497f9722a3daafe3b4186f6b6457e090600090a35050565b610deb848484610c43565b610df78484848461101b565b6109f45760405162461bcd60e51b81526004016104179061193d565b606081610e3857506040805180820190915260018152600360fc1b6020820152610359565b8160005b8115610e625780610e4c8161203e565b9150610e5b9050600a83611fac565b9150610e3c565b60008167ffffffffffffffff811115610e8b57634e487b7160e01b600052604160045260246000fd5b6040519080825280601f01601f191660200182016040528015610eb5576020820181803683370190505b5090505b8415610c3b57610eca600183611fc0565b9150610ed7600a86612059565b610ee2906030611f94565b60f81b818381518110610f0557634e487b7160e01b600052603260045260246000fd5b60200101907effffffffffffffffffffffffffffffffffffffffffffffffffffffffffffff1916908160001a905350610f3f600a86611fac565b9450610eb9565b6001600160e01b031981166301ffc9a760e01b14919050565b610f6a8383836104cf565b6001600160a01b038316610f8657610f8181611136565b610fa9565b816001600160a01b0316836001600160a01b031614610fa957610fa9838261117a565b6001600160a01b038216610fc557610fc081611217565b6104cf565b826001600160a01b0316826001600160a01b0316146104cf576104cf82826112f0565b610ff28383611334565b610fff600084848461101b565b6104cf5760405162461bcd60e51b81526004016104179061193d565b600061102f846001600160a01b0316611413565b1561112b57836001600160a01b031663150b7a0261104b610b4c565b8786866040518563ffffffff1660e01b815260040161106d9493929190611886565b602060405180830381600087803b15801561108757600080fd5b505af19250505080156110b7575060408051601f3d908101601f191682019092526110b49181019061171f565b60015b611111573d8080156110e5576040519150601f19603f3d011682016040523d82523d6000602084013e6110ea565b606091505b5080516111095760405162461bcd60e51b81526004016104179061193d565b805181602001fd5b6001600160e01b031916630a85bd0160e11b149050610c3b565b506001949350505050565b600880546000838152600960205260408120829055600182018355919091527ff3f7a9fe364faab93b216da50a3214154f22a0a2b415b23a84c8169e8b636ee30155565b6000600161118784610795565b6111919190611fc0565b6000838152600760205260409020549091508082146111e4576001600160a01b03841660009081526006602090815260408083208584528252808320548484528184208190558352600790915290208190555b5060009182526007602090815260408084208490556001600160a01b039094168352600681528383209183525290812055565b60085460009061122990600190611fc0565b6000838152600960205260408120546008805493945090928490811061125f57634e487b7160e01b600052603260045260246000fd5b90600052602060002001549050806008838154811061128e57634e487b7160e01b600052603260045260246000fd5b60009182526020808320909101929092558281526009909152604080822084905585825281205560088054806112d457634e487b7160e01b600052603160045260246000fd5b6001900381819060005260206000200160009055905550505050565b60006112fb83610795565b6001600160a01b039093166000908152600660209081526040808320868452825280832085905593825260079052919091209190915550565b6001600160a01b03821661135a5760405162461bcd60e51b815260040161041790611c69565b61136381610b2f565b156113805760405162461bcd60e51b8152600401610417906119f7565b61138c60008383610f5f565b6001600160a01b03821660009081526003602052604081208054600192906113b5908490611f94565b909155505060008181526002602052604080822080546001600160a01b0319166001600160a01b03861690811790915590518392907fddf252ad1be2c89b69c2b068fc378daa952ba7f163c4a11628f55a4df523b3ef908290a45050565b3b151590565b80356001600160a01b038116811461035957600080fd5b600082601f830112611440578081fd5b8135602061145561145083611f64565b611f3a565b8281528181019085830183850287018401881015611471578586fd5b855b8581101561148f57813584529284019290840190600101611473565b5090979650505050505050565b6000602082840312156114ad578081fd5b6114b682611419565b9392505050565b600080604083850312156114cf578081fd5b6114d883611419565b91506114e660208401611419565b90509250929050565b600080600060608486031215611503578081fd5b61150c84611419565b925061151a60208501611419565b9150604084013590509250925092565b6000806000806080858703121561153f578081fd5b61154885611419565b93506020611557818701611419565b935060408601359250606086013567ffffffffffffffff8082111561157a578384fd5b818801915088601f83011261158d578384fd5b81358181111561159f5761159f612099565b6115b1601f8201601f19168501611f3a565b915080825289848285010111156115c6578485fd5b8084840185840137810190920192909252939692955090935050565b600080604083850312156115f4578182fd5b6115fd83611419565b915060208301358015158114611611578182fd5b809150509250929050565b6000806040838503121561162e578182fd5b61163783611419565b946020939093013593505050565b60008060408385031215611657578182fd5b823567ffffffffffffffff8082111561166e578384fd5b818501915085601f830112611681578384fd5b8135602061169161145083611f64565b82815281810190858301838502870184018b10156116ad578889fd5b8896505b848710156116d6576116c281611419565b8352600196909601959183019183016116b1565b50965050860135925050808211156116ec578283fd5b506116f985828601611430565b9150509250929050565b600060208284031215611714578081fd5b81356114b6816120af565b600060208284031215611730578081fd5b81516114b6816120af565b60006020828403121561174c578081fd5b5035919050565b6000815180845261176b816020860160208601611fd7565b601f01601f19169290920160200192915050565b60008151611791818560208601611fd7565b9290920192915050565b7f2e6a736f6e000000000000000000000000000000000000000000000000000000815260050190565b82546000908190600281046001808316806117e057607f831692505b602080841082141561180057634e487b7160e01b87526022600452602487fd5b818015611814576001811461182557611851565b60ff19861689528489019650611851565b61182e8b611f88565b885b868110156118495781548b820152908501908301611830565b505084890196505b505050505050611869611864828661177f565b61179b565b95945050505050565b6001600160a01b0391909116815260200190565b60006001600160a01b038087168352808616602084015250836040830152608060608301526118b86080830184611753565b9695505050505050565b901515815260200190565b6000602082526114b66020830184611753565b6020808252602b908201527f455243373231456e756d657261626c653a206f776e657220696e646578206f7560408201527f74206f6620626f756e6473000000000000000000000000000000000000000000606082015260800190565b60208082526032908201527f4552433732313a207472616e7366657220746f206e6f6e20455243373231526560408201527f63656976657220696d706c656d656e7465720000000000000000000000000000606082015260800190565b60208082526026908201527f4f776e61626c653a206e6577206f776e657220697320746865207a65726f206160408201527f6464726573730000000000000000000000000000000000000000000000000000606082015260800190565b6020808252601c908201527f4552433732313a20746f6b656e20616c7265616479206d696e74656400000000604082015260600190565b60208082526024908201527f4552433732313a207472616e7366657220746f20746865207a65726f206164646040820152637265737360e01b606082015260800190565b60208082526019908201527f4552433732313a20617070726f766520746f2063616c6c657200000000000000604082015260600190565b6020808252602c908201527f4552433732313a206f70657261746f7220717565727920666f72206e6f6e657860408201526b34b9ba32b73a103a37b5b2b760a11b606082015260800190565b60208082526038908201527f4552433732313a20617070726f76652063616c6c6572206973206e6f74206f7760408201527f6e6572206e6f7220617070726f76656420666f7220616c6c0000000000000000606082015260800190565b6020808252602a908201527f4552433732313a2062616c616e636520717565727920666f7220746865207a6560408201527f726f206164647265737300000000000000000000000000000000000000000000606082015260800190565b60208082526029908201527f4552433732313a206f776e657220717565727920666f72206e6f6e657869737460408201527f656e7420746f6b656e0000000000000000000000000000000000000000000000606082015260800190565b6020808252602a908201527f506562626c6550696f6e6565724e46543a2063616c6c6572206973206e6f742060408201527f746865206d696e74657200000000000000000000000000000000000000000000606082015260800190565b6020808252818101527f4552433732313a206d696e7420746f20746865207a65726f2061646472657373604082015260600190565b60208082526027908201527f506562626c6550696f6e6565724e46543a206172726179206c656e677468206460408201527f69736d6174636800000000000000000000000000000000000000000000000000606082015260800190565b6020808252602c908201527f4552433732313a20617070726f76656420717565727920666f72206e6f6e657860408201526b34b9ba32b73a103a37b5b2b760a11b606082015260800190565b6020808252818101527f4f776e61626c653a2063616c6c6572206973206e6f7420746865206f776e6572604082015260600190565b60208082526029908201527f4552433732313a207472616e73666572206f6620746f6b656e2074686174206960408201527f73206e6f74206f776e0000000000000000000000000000000000000000000000606082015260800190565b60208082526031908201527f506562626c6550696f6e6565724e46543a2055524920717565727920666f722060408201527f6e6f6e6578697374656e7420746f6b656e000000000000000000000000000000606082015260800190565b60208082526021908201527f4552433732313a20617070726f76616c20746f2063757272656e74206f776e656040820152603960f91b606082015260800190565b60208082526031908201527f4552433732313a207472616e736665722063616c6c6572206973206e6f74206f60408201527f776e6572206e6f7220617070726f766564000000000000000000000000000000606082015260800190565b6020808252602c908201527f455243373231456e756d657261626c653a20676c6f62616c20696e646578206f60408201527f7574206f6620626f756e64730000000000000000000000000000000000000000606082015260800190565b90815260200190565b60405181810167ffffffffffffffff81118282101715611f5c57611f5c612099565b604052919050565b600067ffffffffffffffff821115611f7e57611f7e612099565b5060209081020190565b60009081526020902090565b60008219821115611fa757611fa761206d565b500190565b600082611fbb57611fbb612083565b500490565b600082821015611fd257611fd261206d565b500390565b60005b83811015611ff2578181015183820152602001611fda565b838111156109f45750506000910152565b60028104600182168061201757607f821691505b6020821081141561203857634e487b7160e01b600052602260045260246000fd5b50919050565b60006000198214156120525761205261206d565b5060010190565b60008261206857612068612083565b500690565b634e487b7160e01b600052601160045260246000fd5b634e487b7160e01b600052601260045260246000fd5b634e487b7160e01b600052604160045260246000fd5b6001600160e01b03198116811461060b57600080fdfea164736f6c6343000800000a",
  "devdoc": {
    "kind": "dev",
    "methods": {
      "approve(address,uint256)": {
        "details": "See {IERC721-approve}."
      },
      "balanceOf(address)": {
        "details": "See {IERC721-balanceOf}."
      },
      "getApproved(uint256)": {
        "details": "See {IERC721-getApproved}."
      },
      "isApprovedForAll(address,address)": {
        "details": "See {IERC721-isApprovedForAll}."
      },
      "name()": {
        "details": "See {IERC721Metadata-name}."
      },
      "owner()": {
        "details": "Returns the address of the current owner."
      },
      "ownerOf(uint256)": {
        "details": "See {IERC721-ownerOf}."
      },
      "renounceOwnership()": {
        "details": "Leaves the contract without owner. It will not be possible to call `onlyOwner` functions anymore. Can only be called by the current owner. NOTE: Renouncing ownership will leave the contract without an owner, thereby removing any functionality that is only available to the owner."
      },
      "safeTransferFrom(address,address,uint256)": {
        "details": "See {IERC721-safeTransferFrom}."
      },
      "safeTransferFrom(address,address,uint256,bytes)": {
        "details": "See {IERC721-safeTransferFrom}."
      },
      "setApprovalForAll(address,bool)": {
        "details": "See {IERC721-setApprovalForAll}."
      },
      "supportsInterface(bytes4)": {
        "details": "See {IERC165-supportsInterface}."
      },
      "symbol()": {
        "details": "See {IERC721Metadata-symbol}."
      },
      "tokenByIndex(uint256)": {
        "details": "See {IERC721Enumerable-tokenByIndex}."
      },
      "tokenOfOwnerByIndex(address,uint256)": {
        "details": "See {IERC721Enumerable-tokenOfOwnerByIndex}."
      },
      "tokenURI(uint256)": {
        "details": "See {IERC721Metadata-tokenURI}."
      },
      "totalSupply()": {
        "details": "See {IERC721Enumerable-totalSupply}."
      },
      "transferFrom(address,address,uint256)": {
        "details": "See {IERC721-transferFrom}."
      },
      "transferOwnership(address)": {
        "details": "Transfers ownership of the contract to a new account (`newOwner`). Can only be called by the current owner."
      }
    },
    "version": 1
  },
  "userdoc": {
    "kind": "user",
    "methods": {},
    "version": 1
  },
  "storageLayout": {
    "storage": [
      {
        "astId": 129,
        "contract": "contracts/PebblePioneerNFT.sol:PebblePioneerNFT",
        "label": "_name",
        "offset": 0,
        "slot": "0",
        "type": "t_string_storage"
      },
      {
        "astId": 131,
        "contract": "contracts/PebblePioneerNFT.sol:PebblePioneerNFT",
        "label": "_symbol",
        "offset": 0,
        "slot": "1",
        "type": "t_string_storage"
      },
      {
        "astId": 135,
        "contract": "contracts/PebblePioneerNFT.sol:PebblePioneerNFT",
        "label": "_owners",
        "offset": 0,
        "slot": "2",
        "type": "t_mapping(t_uint256,t_address)"
      },
      {
        "astId": 139,
        "contract": "contracts/PebblePioneerNFT.sol:PebblePioneerNFT",
        "label": "_balances",
        "offset": 0,
        "slot": "3",
        "type": "t_mapping(t_address,t_uint256)"
      },
      {
        "astId": 143,
        "contract": "contracts/PebblePioneerNFT.sol:PebblePioneerNFT",
        "label": "_tokenApprovals",
        "offset": 0,
        "slot": "4",
        "type": "t_mapping(t_uint256,t_address)"
      },
      {
        "astId": 149,
        "contract": "contracts/PebblePioneerNFT.sol:PebblePioneerNFT",
        "label": "_operatorApprovals",
        "offset": 0,
        "slot": "5",
        "type": "t_mapping(t_address,t_mapping(t_address,t_bool))"
      },
      {
        "astId": 1070,
        "contract": "contracts/PebblePioneerNFT.sol:PebblePioneerNFT",
        "label": "_ownedTokens",
        "offset": 0,
        "slot": "6",
        "type": "t_mapping(t_address,t_mapping(t_uint256,t_uint256))"
      },
      {
        "astId": 1074,
        "contract": "contracts/PebblePioneerNFT.sol:PebblePioneerNFT",
        "label": "_ownedTokensIndex",
        "offset": 0,
        "slot": "7",
        "type": "t_mapping(t_uint256,t_uint256)"
      },
      {
        "astId": 1077,
        "contract": "contracts/PebblePioneerNFT.sol:PebblePioneerNFT",
        "label": "_allTokens",
        "offset": 0,
        "slot": "8",
        "type": "t_array(t_uint256)dyn_storage"
      },
      {
        "astId": 1081,
        "contract": "contracts/PebblePioneerNFT.sol:PebblePioneerNFT",
        "label": "_allTokensIndex",
        "offset": 0,
        "slot": "9",
        "type": "t_mapping(t_uint256,t_uint256)"
      },
      {
        "astId": 7,
        "contract": "contracts/PebblePioneerNFT.sol:PebblePioneerNFT",
        "label": "_owner",
        "offset": 0,
        "slot": "10",
        "type": "t_address"
      },
      {
        "astId": 2546,
        "contract": "contracts/PebblePioneerNFT.sol:PebblePioneerNFT",
        "label": "minters",
        "offset": 0,
        "slot": "11",
        "type": "t_mapping(t_address,t_bool)"
      },
      {
        "astId": 2548,
        "contract": "contracts/PebblePioneerNFT.sol:PebblePioneerNFT",
        "label": "_uri",
        "offset": 0,
        "slot": "12",
        "type": "t_string_storage"
      }
    ],
    "types": {
      "t_address": {
        "encoding": "inplace",
        "label": "address",
        "numberOfBytes": "20"
      },
      "t_array(t_uint256)dyn_storage": {
        "base": "t_uint256",
        "encoding": "dynamic_array",
        "label": "uint256[]",
        "numberOfBytes": "32"
      },
      "t_bool": {
        "encoding": "inplace",
        "label": "bool",
        "numberOfBytes": "1"
      },
      "t_mapping(t_address,t_bool)": {
        "encoding": "mapping",
        "key": "t_address",
        "label": "mapping(address => bool)",
        "numberOfBytes": "32",
        "value": "t_bool"
      },
      "t_mapping(t_address,t_mapping(t_address,t_bool))": {
        "encoding": "mapping",
        "key": "t_address",
        "label": "mapping(address => mapping(address => bool))",
        "numberOfBytes": "32",
        "value": "t_mapping(t_address,t_bool)"
      },
      "t_mapping(t_address,t_mapping(t_uint256,t_uint256))": {
        "encoding": "mapping",
        "key": "t_address",
        "label": "mapping(address => mapping(uint256 => uint256))",
        "numberOfBytes": "32",
        "value": "t_mapping(t_uint256,t_uint256)"
      },
      "t_mapping(t_address,t_uint256)": {
        "encoding": "mapping",
        "key": "t_address",
        "label": "mapping(address => uint256)",
        "numberOfBytes": "32",
        "value": "t_uint256"
      },
      "t_mapping(t_uint256,t_address)": {
        "encoding": "mapping",
        "key": "t_uint256",
        "label": "mapping(uint256 => address)",
        "numberOfBytes": "32",
        "value": "t_address"
      },
      "t_mapping(t_uint256,t_uint256)": {
        "encoding": "mapping",
        "key": "t_uint256",
        "label": "mapping(uint256 => uint256)",
        "numberOfBytes": "32",
        "value": "t_uint256"
      },
      "t_string_storage": {
        "encoding": "bytes",
        "label": "string",
        "numberOfBytes": "32"
      },
      "t_uint256": {
        "encoding": "inplace",
        "label": "uint256",
        "numberOfBytes": "32"
      }
    }
  }
}